{
  "_format": "hh-sol-artifact-1",
  "contractName": "PONC",
  "sourceName": "contracts/PONC.sol",
  "abi": [
    {
      "inputs": [],
      "stateMutability": "nonpayable",
      "type": "constructor"
    },
    {
      "anonymous": false,
      "inputs": [
        {
          "indexed": true,
          "internalType": "address",
          "name": "owner",
          "type": "address"
        },
        {
          "indexed": true,
          "internalType": "address",
          "name": "approved",
          "type": "address"
        },
        {
          "indexed": true,
          "internalType": "uint256",
          "name": "tokenId",
          "type": "uint256"
        }
      ],
      "name": "Approval",
      "type": "event"
    },
    {
      "anonymous": false,
      "inputs": [
        {
          "indexed": true,
          "internalType": "address",
          "name": "owner",
          "type": "address"
        },
        {
          "indexed": true,
          "internalType": "address",
          "name": "operator",
          "type": "address"
        },
        {
          "indexed": false,
          "internalType": "bool",
          "name": "approved",
          "type": "bool"
        }
      ],
      "name": "ApprovalForAll",
      "type": "event"
    },
    {
      "anonymous": false,
      "inputs": [
        {
          "indexed": true,
          "internalType": "uint256",
          "name": "tokenId",
          "type": "uint256"
        },
        {
          "indexed": false,
          "internalType": "address",
          "name": "seller",
          "type": "address"
        },
        {
          "indexed": false,
          "internalType": "address",
          "name": "owner",
          "type": "address"
        },
        {
          "indexed": false,
          "internalType": "uint256",
          "name": "price",
          "type": "uint256"
        },
        {
          "indexed": false,
          "internalType": "bool",
          "name": "sold",
          "type": "bool"
        }
      ],
      "name": "NewsPublished",
      "type": "event"
    },
    {
      "anonymous": false,
      "inputs": [
        {
          "indexed": true,
          "internalType": "address",
          "name": "from",
          "type": "address"
        },
        {
          "indexed": true,
          "internalType": "address",
          "name": "to",
          "type": "address"
        },
        {
          "indexed": true,
          "internalType": "uint256",
          "name": "tokenId",
          "type": "uint256"
        }
      ],
      "name": "Transfer",
      "type": "event"
    },
    {
      "inputs": [
        {
          "internalType": "address",
          "name": "to",
          "type": "address"
        },
        {
          "internalType": "uint256",
          "name": "tokenId",
          "type": "uint256"
        }
      ],
      "name": "approve",
      "outputs": [],
      "stateMutability": "nonpayable",
      "type": "function"
    },
    {
      "inputs": [
        {
          "internalType": "address",
          "name": "owner",
          "type": "address"
        }
      ],
      "name": "balanceOf",
      "outputs": [
        {
          "internalType": "uint256",
          "name": "",
          "type": "uint256"
        }
      ],
      "stateMutability": "view",
      "type": "function"
    },
    {
      "inputs": [
        {
          "internalType": "uint256",
          "name": "tokenId",
          "type": "uint256"
        }
      ],
      "name": "createMarketSale",
      "outputs": [],
      "stateMutability": "payable",
      "type": "function"
    },
    {
      "inputs": [],
      "name": "fetchAllPublishedNews",
      "outputs": [
        {
          "components": [
            {
              "internalType": "uint256",
              "name": "tokenId",
              "type": "uint256"
            },
            {
              "internalType": "address payable",
              "name": "seller",
              "type": "address"
            },
            {
              "internalType": "address payable",
              "name": "owner",
              "type": "address"
            },
            {
              "internalType": "uint256",
              "name": "price",
              "type": "uint256"
            },
            {
              "internalType": "bool",
              "name": "sold",
              "type": "bool"
            }
          ],
          "internalType": "struct PONC.MarketItem[]",
          "name": "",
          "type": "tuple[]"
        }
      ],
      "stateMutability": "view",
      "type": "function"
    },
    {
      "inputs": [],
      "name": "fetchMyNews",
      "outputs": [
        {
          "components": [
            {
              "internalType": "uint256",
              "name": "tokenId",
              "type": "uint256"
            },
            {
              "internalType": "address payable",
              "name": "seller",
              "type": "address"
            },
            {
              "internalType": "address payable",
              "name": "owner",
              "type": "address"
            },
            {
              "internalType": "uint256",
              "name": "price",
              "type": "uint256"
            },
            {
              "internalType": "bool",
              "name": "sold",
              "type": "bool"
            }
          ],
          "internalType": "struct PONC.MarketItem[]",
          "name": "",
          "type": "tuple[]"
        }
      ],
      "stateMutability": "view",
      "type": "function"
    },
    {
      "inputs": [],
      "name": "fetchMyPublishedNews",
      "outputs": [
        {
          "components": [
            {
              "internalType": "uint256",
              "name": "tokenId",
              "type": "uint256"
            },
            {
              "internalType": "address payable",
              "name": "seller",
              "type": "address"
            },
            {
              "internalType": "address payable",
              "name": "owner",
              "type": "address"
            },
            {
              "internalType": "uint256",
              "name": "price",
              "type": "uint256"
            },
            {
              "internalType": "bool",
              "name": "sold",
              "type": "bool"
            }
          ],
          "internalType": "struct PONC.MarketItem[]",
          "name": "",
          "type": "tuple[]"
        }
      ],
      "stateMutability": "view",
      "type": "function"
    },
    {
      "inputs": [
        {
          "internalType": "uint256",
          "name": "tokenId",
          "type": "uint256"
        }
      ],
      "name": "getApproved",
      "outputs": [
        {
          "internalType": "address",
          "name": "",
          "type": "address"
        }
      ],
      "stateMutability": "view",
      "type": "function"
    },
    {
      "inputs": [],
      "name": "getListingPrice",
      "outputs": [
        {
          "internalType": "uint256",
          "name": "",
          "type": "uint256"
        }
      ],
      "stateMutability": "view",
      "type": "function"
    },
    {
      "inputs": [
        {
          "internalType": "address",
          "name": "owner",
          "type": "address"
        },
        {
          "internalType": "address",
          "name": "operator",
          "type": "address"
        }
      ],
      "name": "isApprovedForAll",
      "outputs": [
        {
          "internalType": "bool",
          "name": "",
          "type": "bool"
        }
      ],
      "stateMutability": "view",
      "type": "function"
    },
    {
      "inputs": [],
      "name": "name",
      "outputs": [
        {
          "internalType": "string",
          "name": "",
          "type": "string"
        }
      ],
      "stateMutability": "view",
      "type": "function"
    },
    {
      "inputs": [
        {
          "internalType": "uint256",
          "name": "tokenId",
          "type": "uint256"
        }
      ],
      "name": "ownerOf",
      "outputs": [
        {
          "internalType": "address",
          "name": "",
          "type": "address"
        }
      ],
      "stateMutability": "view",
      "type": "function"
    },
    {
      "inputs": [
        {
          "internalType": "string",
          "name": "newsUri",
          "type": "string"
        },
        {
          "internalType": "uint256",
          "name": "price",
          "type": "uint256"
        },
        {
          "internalType": "uint256",
          "name": "journalistId",
          "type": "uint256"
        }
      ],
      "name": "publishNews",
      "outputs": [
        {
          "internalType": "uint256",
          "name": "",
          "type": "uint256"
        }
      ],
      "stateMutability": "payable",
      "type": "function"
    },
    {
      "inputs": [
        {
          "internalType": "uint256",
          "name": "verification_id",
          "type": "uint256"
        }
      ],
      "name": "registerJournalist",
      "outputs": [
        {
          "internalType": "uint256",
          "name": "",
          "type": "uint256"
        }
      ],
      "stateMutability": "nonpayable",
      "type": "function"
    },
    {
      "inputs": [
        {
          "internalType": "uint256",
          "name": "tokenId",
          "type": "uint256"
        },
        {
          "internalType": "uint256",
          "name": "price",
          "type": "uint256"
        }
      ],
      "name": "resellToken",
      "outputs": [],
      "stateMutability": "payable",
      "type": "function"
    },
    {
      "inputs": [
        {
          "internalType": "address",
          "name": "from",
          "type": "address"
        },
        {
          "internalType": "address",
          "name": "to",
          "type": "address"
        },
        {
          "internalType": "uint256",
          "name": "tokenId",
          "type": "uint256"
        }
      ],
      "name": "safeTransferFrom",
      "outputs": [],
      "stateMutability": "nonpayable",
      "type": "function"
    },
    {
      "inputs": [
        {
          "internalType": "address",
          "name": "from",
          "type": "address"
        },
        {
          "internalType": "address",
          "name": "to",
          "type": "address"
        },
        {
          "internalType": "uint256",
          "name": "tokenId",
          "type": "uint256"
        },
        {
          "internalType": "bytes",
          "name": "_data",
          "type": "bytes"
        }
      ],
      "name": "safeTransferFrom",
      "outputs": [],
      "stateMutability": "nonpayable",
      "type": "function"
    },
    {
      "inputs": [
        {
          "internalType": "address",
          "name": "operator",
          "type": "address"
        },
        {
          "internalType": "bool",
          "name": "approved",
          "type": "bool"
        }
      ],
      "name": "setApprovalForAll",
      "outputs": [],
      "stateMutability": "nonpayable",
      "type": "function"
    },
    {
      "inputs": [
        {
          "internalType": "bytes4",
          "name": "interfaceId",
          "type": "bytes4"
        }
      ],
      "name": "supportsInterface",
      "outputs": [
        {
          "internalType": "bool",
          "name": "",
          "type": "bool"
        }
      ],
      "stateMutability": "view",
      "type": "function"
    },
    {
      "inputs": [],
      "name": "symbol",
      "outputs": [
        {
          "internalType": "string",
          "name": "",
          "type": "string"
        }
      ],
      "stateMutability": "view",
      "type": "function"
    },
    {
      "inputs": [
        {
          "internalType": "uint256",
          "name": "tokenId",
          "type": "uint256"
        }
      ],
      "name": "tokenURI",
      "outputs": [
        {
          "internalType": "string",
          "name": "",
          "type": "string"
        }
      ],
      "stateMutability": "view",
      "type": "function"
    },
    {
      "inputs": [
        {
          "internalType": "address",
          "name": "from",
          "type": "address"
        },
        {
          "internalType": "address",
          "name": "to",
          "type": "address"
        },
        {
          "internalType": "uint256",
          "name": "tokenId",
          "type": "uint256"
        }
      ],
      "name": "transferFrom",
      "outputs": [],
      "stateMutability": "nonpayable",
      "type": "function"
    },
    {
      "inputs": [
        {
          "internalType": "uint256",
          "name": "_listingPrice",
          "type": "uint256"
        }
      ],
      "name": "updateListingPrice",
      "outputs": [],
      "stateMutability": "payable",
      "type": "function"
    }
  ],
  "bytecode": "0x60806040526658d15e17628000600a553480156200001c57600080fd5b506040518060400160405280601a81526020017f50726f6f66204f66204e65777320436f6e747269627574696f6e0000000000008152506040518060400160405280600481526020017f504f4e43000000000000000000000000000000000000000000000000000000008152508160009080519060200190620000a192919062000104565b508060019080519060200190620000ba92919062000104565b50505033600b60006101000a81548173ffffffffffffffffffffffffffffffffffffffff021916908373ffffffffffffffffffffffffffffffffffffffff16021790555062000219565b8280546200011290620001b4565b90600052602060002090601f01602090048101928262000136576000855562000182565b82601f106200015157805160ff191683800117855562000182565b8280016001018555821562000182579182015b828111156200018157825182559160200191906001019062000164565b5b50905062000191919062000195565b5090565b5b80821115620001b057600081600090555060010162000196565b5090565b60006002820490506001821680620001cd57607f821691505b60208210811415620001e457620001e3620001ea565b5b50919050565b7f4e487b7100000000000000000000000000000000000000000000000000000000600052602260045260246000fd5b6143f980620002296000396000f3fe6080604052600436106101355760003560e01c80635b20080a116100ab578063ae677aa31161006f578063ae677aa314610441578063b88d4fde1461045d578063be9af53614610486578063c87b56dd146104a2578063e219fc75146104df578063e985e9c5146104fb57610135565b80635b20080a146103485780636352211e1461037357806370a08231146103b057806395d89b41146103ed578063a22cb4651461041857610135565b80630da07ed8116100fd5780630da07ed81461023357806312e855851461025e57806323b872dd1461028957806334f9e279146102b25780633a100598146102ef57806342842e0e1461031f57610135565b806301ffc9a71461013a57806306fdde0314610177578063081812fc146101a2578063095ea7b3146101df5780630a8c707014610208575b600080fd5b34801561014657600080fd5b50610161600480360381019061015c9190612f26565b610538565b60405161016e9190613613565b60405180910390f35b34801561018357600080fd5b5061018c61061a565b604051610199919061362e565b60405180910390f35b3480156101ae57600080fd5b506101c960048036038101906101c49190612fdf565b6106ac565b6040516101d69190613545565b60405180910390f35b3480156101eb57600080fd5b5061020660048036038101906102019190612eea565b610731565b005b34801561021457600080fd5b5061021d610849565b60405161022a91906135f1565b60405180910390f35b34801561023f57600080fd5b50610248610a64565b60405161025591906135f1565b60405180910390f35b34801561026a57600080fd5b50610273610d9e565b6040516102809190613910565b60405180910390f35b34801561029557600080fd5b506102b060048036038101906102ab9190612de4565b610da8565b005b3480156102be57600080fd5b506102d960048036038101906102d49190612fdf565b610e08565b6040516102e69190613910565b60405180910390f35b61030960048036038101906103049190612f78565b610ec0565b6040516103169190613910565b60405180910390f35b34801561032b57600080fd5b5061034660048036038101906103419190612de4565b610fa7565b005b34801561035457600080fd5b5061035d610fc7565b60405161036a91906135f1565b60405180910390f35b34801561037f57600080fd5b5061039a60048036038101906103959190612fdf565b611301565b6040516103a79190613545565b60405180910390f35b3480156103bc57600080fd5b506103d760048036038101906103d29190612d7f565b6113b3565b6040516103e49190613910565b60405180910390f35b3480156103f957600080fd5b5061040261146b565b60405161040f919061362e565b60405180910390f35b34801561042457600080fd5b5061043f600480360381019061043a9190612eae565b6114fd565b005b61045b60048036038101906104569190612fdf565b611513565b005b34801561046957600080fd5b50610484600480360381019061047f9190612e33565b6115ad565b005b6104a0600480360381019061049b9190612fdf565b61160f565b005b3480156104ae57600080fd5b506104c960048036038101906104c49190612fdf565b61184d565b6040516104d6919061362e565b60405180910390f35b6104f960048036038101906104f49190613008565b61199f565b005b34801561050757600080fd5b50610522600480360381019061051d9190612da8565b611b94565b60405161052f9190613613565b60405180910390f35b60007f80ac58cd000000000000000000000000000000000000000000000000000000007bffffffffffffffffffffffffffffffffffffffffffffffffffffffff1916827bffffffffffffffffffffffffffffffffffffffffffffffffffffffff1916148061060357507f5b5e139f000000000000000000000000000000000000000000000000000000007bffffffffffffffffffffffffffffffffffffffffffffffffffffffff1916827bffffffffffffffffffffffffffffffffffffffffffffffffffffffff1916145b80610613575061061282611c28565b5b9050919050565b60606000805461062990613bb1565b80601f016020809104026020016040519081016040528092919081815260200182805461065590613bb1565b80156106a25780601f10610677576101008083540402835291602001916106a2565b820191906000526020600020905b81548152906001019060200180831161068557829003601f168201915b5050505050905090565b60006106b782611c92565b6106f6576040517f08c379a00000000000000000000000000000000000000000000000000000000081526004016106ed90613850565b60405180910390fd5b6004600083815260200190815260200160002060009054906101000a900473ffffffffffffffffffffffffffffffffffffffff169050919050565b600061073c82611301565b90508073ffffffffffffffffffffffffffffffffffffffff168373ffffffffffffffffffffffffffffffffffffffff1614156107ad576040517f08c379a00000000000000000000000000000000000000000000000000000000081526004016107a490613890565b60405180910390fd5b8073ffffffffffffffffffffffffffffffffffffffff166107cc611cfe565b73ffffffffffffffffffffffffffffffffffffffff1614806107fb57506107fa816107f5611cfe565b611b94565b5b61083a576040517f08c379a000000000000000000000000000000000000000000000000000000000815260040161083190613750565b60405180910390fd5b6108448383611d06565b505050565b606060006108576007611dbf565b90506000808267ffffffffffffffff81111561089c577f4e487b7100000000000000000000000000000000000000000000000000000000600052604160045260246000fd5b6040519080825280602002602001820160405280156108d557816020015b6108c2612b46565b8152602001906001900390816108ba5790505b50905060005b83811015610a5a5760006001826108f29190613a2e565b90506000600c60008381526020019081526020016000209050806040518060a0016040529081600082015481526020016001820160009054906101000a900473ffffffffffffffffffffffffffffffffffffffff1673ffffffffffffffffffffffffffffffffffffffff1673ffffffffffffffffffffffffffffffffffffffff1681526020016002820160009054906101000a900473ffffffffffffffffffffffffffffffffffffffff1673ffffffffffffffffffffffffffffffffffffffff1673ffffffffffffffffffffffffffffffffffffffff168152602001600382015481526020016004820160009054906101000a900460ff161515151581525050848681518110610a2b577f4e487b7100000000000000000000000000000000000000000000000000000000600052603260045260246000fd5b6020026020010181905250600185610a439190613a2e565b945050508080610a5290613c14565b9150506108db565b5080935050505090565b60606000610a726007611dbf565b905060008060005b83811015610b1b573373ffffffffffffffffffffffffffffffffffffffff16600c6000600184610aaa9190613a2e565b815260200190815260200160002060010160009054906101000a900473ffffffffffffffffffffffffffffffffffffffff1673ffffffffffffffffffffffffffffffffffffffff161415610b0857600183610b059190613a2e565b92505b8080610b1390613c14565b915050610a7a565b5060008267ffffffffffffffff811115610b5e577f4e487b7100000000000000000000000000000000000000000000000000000000600052604160045260246000fd5b604051908082528060200260200182016040528015610b9757816020015b610b84612b46565b815260200190600190039081610b7c5790505b50905060005b84811015610d93573373ffffffffffffffffffffffffffffffffffffffff16600c6000600184610bcd9190613a2e565b815260200190815260200160002060010160009054906101000a900473ffffffffffffffffffffffffffffffffffffffff1673ffffffffffffffffffffffffffffffffffffffff161415610d80576000600182610c2a9190613a2e565b90506000600c60008381526020019081526020016000209050806040518060a0016040529081600082015481526020016001820160009054906101000a900473ffffffffffffffffffffffffffffffffffffffff1673ffffffffffffffffffffffffffffffffffffffff1673ffffffffffffffffffffffffffffffffffffffff1681526020016002820160009054906101000a900473ffffffffffffffffffffffffffffffffffffffff1673ffffffffffffffffffffffffffffffffffffffff1673ffffffffffffffffffffffffffffffffffffffff168152602001600382015481526020016004820160009054906101000a900460ff161515151581525050848681518110610d63577f4e487b7100000000000000000000000000000000000000000000000000000000600052603260045260246000fd5b6020026020010181905250600185610d7b9190613a2e565b945050505b8080610d8b90613c14565b915050610b9d565b508094505050505090565b6000600a54905090565b610db9610db3611cfe565b82611dcd565b610df8576040517f08c379a0000000000000000000000000000000000000000000000000000000008152600401610def906138d0565b60405180910390fd5b610e03838383611eab565b505050565b6000610e146009612112565b60405180604001604052808381526020013373ffffffffffffffffffffffffffffffffffffffff16815250600d6000610e4d6009611dbf565b81526020019081526020016000206000820151816000015560208201518160010160006101000a81548173ffffffffffffffffffffffffffffffffffffffff021916908373ffffffffffffffffffffffffffffffffffffffff160217905550905050610eb96009611dbf565b9050919050565b60003373ffffffffffffffffffffffffffffffffffffffff16600d600084815260200190815260200160002060010160009054906101000a900473ffffffffffffffffffffffffffffffffffffffff1673ffffffffffffffffffffffffffffffffffffffff1614610f66576040517f08c379a0000000000000000000000000000000000000000000000000000000008152600401610f5d906136d0565b60405180910390fd5b610f706007612112565b6000610f7c6007611dbf565b9050610f883382612128565b610f928186612302565b610f9c8185612376565b809150509392505050565b610fc2838383604051806020016040528060008152506115ad565b505050565b60606000610fd56007611dbf565b905060008060005b8381101561107e573373ffffffffffffffffffffffffffffffffffffffff16600c600060018461100d9190613a2e565b815260200190815260200160002060020160009054906101000a900473ffffffffffffffffffffffffffffffffffffffff1673ffffffffffffffffffffffffffffffffffffffff16141561106b576001836110689190613a2e565b92505b808061107690613c14565b915050610fdd565b5060008267ffffffffffffffff8111156110c1577f4e487b7100000000000000000000000000000000000000000000000000000000600052604160045260246000fd5b6040519080825280602002602001820160405280156110fa57816020015b6110e7612b46565b8152602001906001900390816110df5790505b50905060005b848110156112f6573373ffffffffffffffffffffffffffffffffffffffff16600c60006001846111309190613a2e565b815260200190815260200160002060020160009054906101000a900473ffffffffffffffffffffffffffffffffffffffff1673ffffffffffffffffffffffffffffffffffffffff1614156112e357600060018261118d9190613a2e565b90506000600c60008381526020019081526020016000209050806040518060a0016040529081600082015481526020016001820160009054906101000a900473ffffffffffffffffffffffffffffffffffffffff1673ffffffffffffffffffffffffffffffffffffffff1673ffffffffffffffffffffffffffffffffffffffff1681526020016002820160009054906101000a900473ffffffffffffffffffffffffffffffffffffffff1673ffffffffffffffffffffffffffffffffffffffff1673ffffffffffffffffffffffffffffffffffffffff168152602001600382015481526020016004820160009054906101000a900460ff1615151515815250508486815181106112c6577f4e487b7100000000000000000000000000000000000000000000000000000000600052603260045260246000fd5b60200260200101819052506001856112de9190613a2e565b945050505b80806112ee90613c14565b915050611100565b508094505050505090565b6000806002600084815260200190815260200160002060009054906101000a900473ffffffffffffffffffffffffffffffffffffffff169050600073ffffffffffffffffffffffffffffffffffffffff168173ffffffffffffffffffffffffffffffffffffffff1614156113aa576040517f08c379a00000000000000000000000000000000000000000000000000000000081526004016113a190613790565b60405180910390fd5b80915050919050565b60008073ffffffffffffffffffffffffffffffffffffffff168273ffffffffffffffffffffffffffffffffffffffff161415611424576040517f08c379a000000000000000000000000000000000000000000000000000000000815260040161141b90613770565b60405180910390fd5b600360008373ffffffffffffffffffffffffffffffffffffffff1673ffffffffffffffffffffffffffffffffffffffff168152602001908152602001600020549050919050565b60606001805461147a90613bb1565b80601f01602080910402602001604051908101604052809291908181526020018280546114a690613bb1565b80156114f35780601f106114c8576101008083540402835291602001916114f3565b820191906000526020600020905b8154815290600101906020018083116114d657829003601f168201915b5050505050905090565b61150f611508611cfe565b83836124f2565b5050565b3373ffffffffffffffffffffffffffffffffffffffff16600b60009054906101000a900473ffffffffffffffffffffffffffffffffffffffff1673ffffffffffffffffffffffffffffffffffffffff16146115a3576040517f08c379a000000000000000000000000000000000000000000000000000000000815260040161159a906138f0565b60405180910390fd5b80600a8190555050565b6115be6115b8611cfe565b83611dcd565b6115fd576040517f08c379a00000000000000000000000000000000000000000000000000000000081526004016115f4906138d0565b60405180910390fd5b6116098484848461265f565b50505050565b6000600c60008381526020019081526020016000206003015490506000600c600084815260200190815260200160002060010160009054906101000a900473ffffffffffffffffffffffffffffffffffffffff1690508134146116a7576040517f08c379a000000000000000000000000000000000000000000000000000000000815260040161169e906137d0565b60405180910390fd5b33600c600085815260200190815260200160002060020160006101000a81548173ffffffffffffffffffffffffffffffffffffffff021916908373ffffffffffffffffffffffffffffffffffffffff1602179055506001600c600085815260200190815260200160002060040160006101000a81548160ff0219169083151502179055506000600c600085815260200190815260200160002060010160006101000a81548173ffffffffffffffffffffffffffffffffffffffff021916908373ffffffffffffffffffffffffffffffffffffffff16021790555061178b6008612112565b611796303385611eab565b600b60009054906101000a900473ffffffffffffffffffffffffffffffffffffffff1673ffffffffffffffffffffffffffffffffffffffff166108fc600a549081150290604051600060405180830381858888f19350505050158015611800573d6000803e3d6000fd5b508073ffffffffffffffffffffffffffffffffffffffff166108fc349081150290604051600060405180830381858888f19350505050158015611847573d6000803e3d6000fd5b50505050565b606061185882611c92565b611897576040517f08c379a000000000000000000000000000000000000000000000000000000000815260040161188e90613810565b60405180910390fd5b60006006600084815260200190815260200160002080546118b790613bb1565b80601f01602080910402602001604051908101604052809291908181526020018280546118e390613bb1565b80156119305780601f1061190557610100808354040283529160200191611930565b820191906000526020600020905b81548152906001019060200180831161191357829003601f168201915b5050505050905060006119416126bb565b905060008151141561195757819250505061199a565b60008251111561198c578082604051602001611974929190613521565b6040516020818303038152906040529250505061199a565b611995846126d2565b925050505b919050565b3373ffffffffffffffffffffffffffffffffffffffff16600c600084815260200190815260200160002060020160009054906101000a900473ffffffffffffffffffffffffffffffffffffffff1673ffffffffffffffffffffffffffffffffffffffff1614611a43576040517f08c379a0000000000000000000000000000000000000000000000000000000008152600401611a3a90613830565b60405180910390fd5b600a543414611a87576040517f08c379a0000000000000000000000000000000000000000000000000000000008152600401611a7e906138b0565b60405180910390fd5b6000600c600084815260200190815260200160002060040160006101000a81548160ff02191690831515021790555080600c60008481526020019081526020016000206003018190555033600c600084815260200190815260200160002060010160006101000a81548173ffffffffffffffffffffffffffffffffffffffff021916908373ffffffffffffffffffffffffffffffffffffffff16021790555030600c600084815260200190815260200160002060020160006101000a81548173ffffffffffffffffffffffffffffffffffffffff021916908373ffffffffffffffffffffffffffffffffffffffff160217905550611b856008612779565b611b90333084611eab565b5050565b6000600560008473ffffffffffffffffffffffffffffffffffffffff1673ffffffffffffffffffffffffffffffffffffffff16815260200190815260200160002060008373ffffffffffffffffffffffffffffffffffffffff1673ffffffffffffffffffffffffffffffffffffffff16815260200190815260200160002060009054906101000a900460ff16905092915050565b60007f01ffc9a7000000000000000000000000000000000000000000000000000000007bffffffffffffffffffffffffffffffffffffffffffffffffffffffff1916827bffffffffffffffffffffffffffffffffffffffffffffffffffffffff1916149050919050565b60008073ffffffffffffffffffffffffffffffffffffffff166002600084815260200190815260200160002060009054906101000a900473ffffffffffffffffffffffffffffffffffffffff1673ffffffffffffffffffffffffffffffffffffffff1614159050919050565b600033905090565b816004600083815260200190815260200160002060006101000a81548173ffffffffffffffffffffffffffffffffffffffff021916908373ffffffffffffffffffffffffffffffffffffffff160217905550808273ffffffffffffffffffffffffffffffffffffffff16611d7983611301565b73ffffffffffffffffffffffffffffffffffffffff167f8c5be1e5ebec7d5bd14f71427d1e84f3dd0314c0f7b2291e5b200ac8c7c3b92560405160405180910390a45050565b600081600001549050919050565b6000611dd882611c92565b611e17576040517f08c379a0000000000000000000000000000000000000000000000000000000008152600401611e0e90613730565b60405180910390fd5b6000611e2283611301565b90508073ffffffffffffffffffffffffffffffffffffffff168473ffffffffffffffffffffffffffffffffffffffff161480611e9157508373ffffffffffffffffffffffffffffffffffffffff16611e79846106ac565b73ffffffffffffffffffffffffffffffffffffffff16145b80611ea25750611ea18185611b94565b5b91505092915050565b8273ffffffffffffffffffffffffffffffffffffffff16611ecb82611301565b73ffffffffffffffffffffffffffffffffffffffff1614611f21576040517f08c379a0000000000000000000000000000000000000000000000000000000008152600401611f1890613690565b60405180910390fd5b600073ffffffffffffffffffffffffffffffffffffffff168273ffffffffffffffffffffffffffffffffffffffff161415611f91576040517f08c379a0000000000000000000000000000000000000000000000000000000008152600401611f88906136f0565b60405180910390fd5b611f9c8383836127d5565b611fa7600082611d06565b6001600360008573ffffffffffffffffffffffffffffffffffffffff1673ffffffffffffffffffffffffffffffffffffffff1681526020019081526020016000206000828254611ff79190613ab5565b925050819055506001600360008473ffffffffffffffffffffffffffffffffffffffff1673ffffffffffffffffffffffffffffffffffffffff168152602001908152602001600020600082825461204e9190613a2e565b92505081905550816002600083815260200190815260200160002060006101000a81548173ffffffffffffffffffffffffffffffffffffffff021916908373ffffffffffffffffffffffffffffffffffffffff160217905550808273ffffffffffffffffffffffffffffffffffffffff168473ffffffffffffffffffffffffffffffffffffffff167fddf252ad1be2c89b69c2b068fc378daa952ba7f163c4a11628f55a4df523b3ef60405160405180910390a461210d8383836127da565b505050565b6001816000016000828254019250508190555050565b600073ffffffffffffffffffffffffffffffffffffffff168273ffffffffffffffffffffffffffffffffffffffff161415612198576040517f08c379a000000000000000000000000000000000000000000000000000000000815260040161218f906137f0565b60405180910390fd5b6121a181611c92565b156121e1576040517f08c379a00000000000000000000000000000000000000000000000000000000081526004016121d8906136b0565b60405180910390fd5b6121ed600083836127d5565b6001600360008473ffffffffffffffffffffffffffffffffffffffff1673ffffffffffffffffffffffffffffffffffffffff168152602001908152602001600020600082825461223d9190613a2e565b92505081905550816002600083815260200190815260200160002060006101000a81548173ffffffffffffffffffffffffffffffffffffffff021916908373ffffffffffffffffffffffffffffffffffffffff160217905550808273ffffffffffffffffffffffffffffffffffffffff16600073ffffffffffffffffffffffffffffffffffffffff167fddf252ad1be2c89b69c2b068fc378daa952ba7f163c4a11628f55a4df523b3ef60405160405180910390a46122fe600083836127da565b5050565b61230b82611c92565b61234a576040517f08c379a0000000000000000000000000000000000000000000000000000000008152600401612341906137b0565b60405180910390fd5b80600660008481526020019081526020016000209080519060200190612371929190612ba3565b505050565b6040518060a001604052808381526020013373ffffffffffffffffffffffffffffffffffffffff1681526020013373ffffffffffffffffffffffffffffffffffffffff16815260200182815260200160001515815250600c60008481526020019081526020016000206000820151816000015560208201518160010160006101000a81548173ffffffffffffffffffffffffffffffffffffffff021916908373ffffffffffffffffffffffffffffffffffffffff16021790555060408201518160020160006101000a81548173ffffffffffffffffffffffffffffffffffffffff021916908373ffffffffffffffffffffffffffffffffffffffff1602179055506060820151816003015560808201518160040160006101000a81548160ff0219169083151502179055509050506124af333084611eab565b817f1ee8f25b6149e094107d25be591f9aa10a9cd9e8f3c20d0e45667117d04b5df633308460006040516124e69493929190613560565b60405180910390a25050565b8173ffffffffffffffffffffffffffffffffffffffff168373ffffffffffffffffffffffffffffffffffffffff161415612561576040517f08c379a000000000000000000000000000000000000000000000000000000000815260040161255890613710565b60405180910390fd5b80600560008573ffffffffffffffffffffffffffffffffffffffff1673ffffffffffffffffffffffffffffffffffffffff16815260200190815260200160002060008473ffffffffffffffffffffffffffffffffffffffff1673ffffffffffffffffffffffffffffffffffffffff16815260200190815260200160002060006101000a81548160ff0219169083151502179055508173ffffffffffffffffffffffffffffffffffffffff168373ffffffffffffffffffffffffffffffffffffffff167f17307eab39ab6107e8899845ad3d59bd9653f200f220920489ca2b5937696c31836040516126529190613613565b60405180910390a3505050565b61266a848484611eab565b612676848484846127df565b6126b5576040517f08c379a00000000000000000000000000000000000000000000000000000000081526004016126ac90613670565b60405180910390fd5b50505050565b606060405180602001604052806000815250905090565b60606126dd82611c92565b61271c576040517f08c379a000000000000000000000000000000000000000000000000000000000815260040161271390613870565b60405180910390fd5b60006127266126bb565b905060008151116127465760405180602001604052806000815250612771565b8061275084612976565b604051602001612761929190613521565b6040516020818303038152906040525b915050919050565b600081600001549050600081116127c5576040517f08c379a00000000000000000000000000000000000000000000000000000000081526004016127bc90613650565b60405180910390fd5b6001810382600001819055505050565b505050565b505050565b60006128008473ffffffffffffffffffffffffffffffffffffffff16612b23565b15612969578373ffffffffffffffffffffffffffffffffffffffff1663150b7a02612829611cfe565b8786866040518563ffffffff1660e01b815260040161284b94939291906135a5565b602060405180830381600087803b15801561286557600080fd5b505af192505050801561289657506040513d601f19601f820116820180604052508101906128939190612f4f565b60015b612919573d80600081146128c6576040519150601f19603f3d011682016040523d82523d6000602084013e6128cb565b606091505b50600081511415612911576040517f08c379a000000000000000000000000000000000000000000000000000000000815260040161290890613670565b60405180910390fd5b805181602001fd5b63150b7a0260e01b7bffffffffffffffffffffffffffffffffffffffffffffffffffffffff1916817bffffffffffffffffffffffffffffffffffffffffffffffffffffffff19161491505061296e565b600190505b949350505050565b606060008214156129be576040518060400160405280600181526020017f30000000000000000000000000000000000000000000000000000000000000008152509050612b1e565b600082905060005b600082146129f05780806129d990613c14565b915050600a826129e99190613a84565b91506129c6565b60008167ffffffffffffffff811115612a32577f4e487b7100000000000000000000000000000000000000000000000000000000600052604160045260246000fd5b6040519080825280601f01601f191660200182016040528015612a645781602001600182028036833780820191505090505b5090505b60008514612b1757600182612a7d9190613ab5565b9150600a85612a8c9190613c5d565b6030612a989190613a2e565b60f81b818381518110612ad4577f4e487b7100000000000000000000000000000000000000000000000000000000600052603260045260246000fd5b60200101907effffffffffffffffffffffffffffffffffffffffffffffffffffffffffffff1916908160001a905350600a85612b109190613a84565b9450612a68565b8093505050505b919050565b6000808273ffffffffffffffffffffffffffffffffffffffff163b119050919050565b6040518060a0016040528060008152602001600073ffffffffffffffffffffffffffffffffffffffff168152602001600073ffffffffffffffffffffffffffffffffffffffff168152602001600081526020016000151581525090565b828054612baf90613bb1565b90600052602060002090601f016020900481019282612bd15760008555612c18565b82601f10612bea57805160ff1916838001178555612c18565b82800160010185558215612c18579182015b82811115612c17578251825591602001919060010190612bfc565b5b509050612c259190612c29565b5090565b5b80821115612c42576000816000905550600101612c2a565b5090565b6000612c59612c5484613950565b61392b565b905082815260208101848484011115612c7157600080fd5b612c7c848285613b6f565b509392505050565b6000612c97612c9284613981565b61392b565b905082815260208101848484011115612caf57600080fd5b612cba848285613b6f565b509392505050565b600081359050612cd181614367565b92915050565b600081359050612ce68161437e565b92915050565b600081359050612cfb81614395565b92915050565b600081519050612d1081614395565b92915050565b600082601f830112612d2757600080fd5b8135612d37848260208601612c46565b91505092915050565b600082601f830112612d5157600080fd5b8135612d61848260208601612c84565b91505092915050565b600081359050612d79816143ac565b92915050565b600060208284031215612d9157600080fd5b6000612d9f84828501612cc2565b91505092915050565b60008060408385031215612dbb57600080fd5b6000612dc985828601612cc2565b9250506020612dda85828601612cc2565b9150509250929050565b600080600060608486031215612df957600080fd5b6000612e0786828701612cc2565b9350506020612e1886828701612cc2565b9250506040612e2986828701612d6a565b9150509250925092565b60008060008060808587031215612e4957600080fd5b6000612e5787828801612cc2565b9450506020612e6887828801612cc2565b9350506040612e7987828801612d6a565b925050606085013567ffffffffffffffff811115612e9657600080fd5b612ea287828801612d16565b91505092959194509250565b60008060408385031215612ec157600080fd5b6000612ecf85828601612cc2565b9250506020612ee085828601612cd7565b9150509250929050565b60008060408385031215612efd57600080fd5b6000612f0b85828601612cc2565b9250506020612f1c85828601612d6a565b9150509250929050565b600060208284031215612f3857600080fd5b6000612f4684828501612cec565b91505092915050565b600060208284031215612f6157600080fd5b6000612f6f84828501612d01565b91505092915050565b600080600060608486031215612f8d57600080fd5b600084013567ffffffffffffffff811115612fa757600080fd5b612fb386828701612d40565b9350506020612fc486828701612d6a565b9250506040612fd586828701612d6a565b9150509250925092565b600060208284031215612ff157600080fd5b6000612fff84828501612d6a565b91505092915050565b6000806040838503121561301b57600080fd5b600061302985828601612d6a565b925050602061303a85828601612d6a565b9150509250929050565b6000613050838361349b565b60a08301905092915050565b61306581613afb565b82525050565b61307481613ae9565b82525050565b6000613085826139c2565b61308f81856139f0565b935061309a836139b2565b8060005b838110156130cb5781516130b28882613044565b97506130bd836139e3565b92505060018101905061309e565b5085935050505092915050565b6130e181613b0d565b82525050565b6130f081613b0d565b82525050565b6000613101826139cd565b61310b8185613a01565b935061311b818560208601613b7e565b61312481613d4a565b840191505092915050565b600061313a826139d8565b6131448185613a12565b9350613154818560208601613b7e565b61315d81613d4a565b840191505092915050565b6000613173826139d8565b61317d8185613a23565b935061318d818560208601613b7e565b80840191505092915050565b60006131a6601b83613a12565b91506131b182613d5b565b602082019050919050565b60006131c9603283613a12565b91506131d482613d84565b604082019050919050565b60006131ec602583613a12565b91506131f782613dd3565b604082019050919050565b600061320f601c83613a12565b915061321a82613e22565b602082019050919050565b6000613232601f83613a12565b915061323d82613e4b565b602082019050919050565b6000613255602483613a12565b915061326082613e74565b604082019050919050565b6000613278601983613a12565b915061328382613ec3565b602082019050919050565b600061329b602c83613a12565b91506132a682613eec565b604082019050919050565b60006132be603883613a12565b91506132c982613f3b565b604082019050919050565b60006132e1602a83613a12565b91506132ec82613f8a565b604082019050919050565b6000613304602983613a12565b915061330f82613fd9565b604082019050919050565b6000613327602e83613a12565b915061333282614028565b604082019050919050565b600061334a604083613a12565b915061335582614077565b604082019050919050565b600061336d602083613a12565b9150613378826140c6565b602082019050919050565b6000613390603183613a12565b915061339b826140ef565b604082019050919050565b60006133b3602a83613a12565b91506133be8261413e565b604082019050919050565b60006133d6602c83613a12565b91506133e18261418d565b604082019050919050565b60006133f9602f83613a12565b9150613404826141dc565b604082019050919050565b600061341c602183613a12565b91506134278261422b565b604082019050919050565b600061343f602483613a12565b915061344a8261427a565b604082019050919050565b6000613462603183613a12565b915061346d826142c9565b604082019050919050565b6000613485603083613a12565b915061349082614318565b604082019050919050565b60a0820160008201516134b16000850182613503565b5060208201516134c4602085018261305c565b5060408201516134d7604085018261305c565b5060608201516134ea6060850182613503565b5060808201516134fd60808501826130d8565b50505050565b61350c81613b65565b82525050565b61351b81613b65565b82525050565b600061352d8285613168565b91506135398284613168565b91508190509392505050565b600060208201905061355a600083018461306b565b92915050565b6000608082019050613575600083018761306b565b613582602083018661306b565b61358f6040830185613512565b61359c60608301846130e7565b95945050505050565b60006080820190506135ba600083018761306b565b6135c7602083018661306b565b6135d46040830185613512565b81810360608301526135e681846130f6565b905095945050505050565b6000602082019050818103600083015261360b818461307a565b905092915050565b600060208201905061362860008301846130e7565b92915050565b60006020820190508181036000830152613648818461312f565b905092915050565b6000602082019050818103600083015261366981613199565b9050919050565b60006020820190508181036000830152613689816131bc565b9050919050565b600060208201905081810360008301526136a9816131df565b9050919050565b600060208201905081810360008301526136c981613202565b9050919050565b600060208201905081810360008301526136e981613225565b9050919050565b6000602082019050818103600083015261370981613248565b9050919050565b600060208201905081810360008301526137298161326b565b9050919050565b600060208201905081810360008301526137498161328e565b9050919050565b60006020820190508181036000830152613769816132b1565b9050919050565b60006020820190508181036000830152613789816132d4565b9050919050565b600060208201905081810360008301526137a9816132f7565b9050919050565b600060208201905081810360008301526137c98161331a565b9050919050565b600060208201905081810360008301526137e98161333d565b9050919050565b6000602082019050818103600083015261380981613360565b9050919050565b6000602082019050818103600083015261382981613383565b9050919050565b60006020820190508181036000830152613849816133a6565b9050919050565b60006020820190508181036000830152613869816133c9565b9050919050565b60006020820190508181036000830152613889816133ec565b9050919050565b600060208201905081810360008301526138a98161340f565b9050919050565b600060208201905081810360008301526138c981613432565b9050919050565b600060208201905081810360008301526138e981613455565b9050919050565b6000602082019050818103600083015261390981613478565b9050919050565b60006020820190506139256000830184613512565b92915050565b6000613935613946565b90506139418282613be3565b919050565b6000604051905090565b600067ffffffffffffffff82111561396b5761396a613d1b565b5b61397482613d4a565b9050602081019050919050565b600067ffffffffffffffff82111561399c5761399b613d1b565b5b6139a582613d4a565b9050602081019050919050565b6000819050602082019050919050565b600081519050919050565b600081519050919050565b600081519050919050565b6000602082019050919050565b600082825260208201905092915050565b600082825260208201905092915050565b600082825260208201905092915050565b600081905092915050565b6000613a3982613b65565b9150613a4483613b65565b9250827fffffffffffffffffffffffffffffffffffffffffffffffffffffffffffffffff03821115613a7957613a78613c8e565b5b828201905092915050565b6000613a8f82613b65565b9150613a9a83613b65565b925082613aaa57613aa9613cbd565b5b828204905092915050565b6000613ac082613b65565b9150613acb83613b65565b925082821015613ade57613add613c8e565b5b828203905092915050565b6000613af482613b45565b9050919050565b6000613b0682613b45565b9050919050565b60008115159050919050565b60007fffffffff0000000000000000000000000000000000000000000000000000000082169050919050565b600073ffffffffffffffffffffffffffffffffffffffff82169050919050565b6000819050919050565b82818337600083830152505050565b60005b83811015613b9c578082015181840152602081019050613b81565b83811115613bab576000848401525b50505050565b60006002820490506001821680613bc957607f821691505b60208210811415613bdd57613bdc613cec565b5b50919050565b613bec82613d4a565b810181811067ffffffffffffffff82111715613c0b57613c0a613d1b565b5b80604052505050565b6000613c1f82613b65565b91507fffffffffffffffffffffffffffffffffffffffffffffffffffffffffffffffff821415613c5257613c51613c8e565b5b600182019050919050565b6000613c6882613b65565b9150613c7383613b65565b925082613c8357613c82613cbd565b5b828206905092915050565b7f4e487b7100000000000000000000000000000000000000000000000000000000600052601160045260246000fd5b7f4e487b7100000000000000000000000000000000000000000000000000000000600052601260045260246000fd5b7f4e487b7100000000000000000000000000000000000000000000000000000000600052602260045260246000fd5b7f4e487b7100000000000000000000000000000000000000000000000000000000600052604160045260246000fd5b6000601f19601f8301169050919050565b7f436f756e7465723a2064656372656d656e74206f766572666c6f770000000000600082015250565b7f4552433732313a207472616e7366657220746f206e6f6e20455243373231526560008201527f63656976657220696d706c656d656e7465720000000000000000000000000000602082015250565b7f4552433732313a207472616e736665722066726f6d20696e636f72726563742060008201527f6f776e6572000000000000000000000000000000000000000000000000000000602082015250565b7f4552433732313a20746f6b656e20616c7265616479206d696e74656400000000600082015250565b7f5075626c6973686572206e6f7420612072656769737465726564207573657200600082015250565b7f4552433732313a207472616e7366657220746f20746865207a65726f2061646460008201527f7265737300000000000000000000000000000000000000000000000000000000602082015250565b7f4552433732313a20617070726f766520746f2063616c6c657200000000000000600082015250565b7f4552433732313a206f70657261746f7220717565727920666f72206e6f6e657860008201527f697374656e7420746f6b656e0000000000000000000000000000000000000000602082015250565b7f4552433732313a20617070726f76652063616c6c6572206973206e6f74206f7760008201527f6e6572206e6f7220617070726f76656420666f7220616c6c0000000000000000602082015250565b7f4552433732313a2062616c616e636520717565727920666f7220746865207a6560008201527f726f206164647265737300000000000000000000000000000000000000000000602082015250565b7f4552433732313a206f776e657220717565727920666f72206e6f6e657869737460008201527f656e7420746f6b656e0000000000000000000000000000000000000000000000602082015250565b7f45524337323155524953746f726167653a2055524920736574206f66206e6f6e60008201527f6578697374656e7420746f6b656e000000000000000000000000000000000000602082015250565b7f506c65617365207375626d6974207468652061736b696e67207072696365206960008201527f6e206f7264657220746f20636f6d706c65746520746865207075726368617365602082015250565b7f4552433732313a206d696e7420746f20746865207a65726f2061646472657373600082015250565b7f45524337323155524953746f726167653a2055524920717565727920666f722060008201527f6e6f6e6578697374656e7420746f6b656e000000000000000000000000000000602082015250565b7f4f6e6c79206974656d206f776e65722063616e20706572666f726d207468697360008201527f206f7065726174696f6e00000000000000000000000000000000000000000000602082015250565b7f4552433732313a20617070726f76656420717565727920666f72206e6f6e657860008201527f697374656e7420746f6b656e0000000000000000000000000000000000000000602082015250565b7f4552433732314d657461646174613a2055524920717565727920666f72206e6f60008201527f6e6578697374656e7420746f6b656e0000000000000000000000000000000000602082015250565b7f4552433732313a20617070726f76616c20746f2063757272656e74206f776e6560008201527f7200000000000000000000000000000000000000000000000000000000000000602082015250565b7f5072696365206d75737420626520657175616c20746f206c697374696e67207060008201527f7269636500000000000000000000000000000000000000000000000000000000602082015250565b7f4552433732313a207472616e736665722063616c6c6572206973206e6f74206f60008201527f776e6572206e6f7220617070726f766564000000000000000000000000000000602082015250565b7f4f6e6c79206d61726b6574706c616365206f776e65722063616e20757064617460008201527f65206c697374696e672070726963652e00000000000000000000000000000000602082015250565b61437081613ae9565b811461437b57600080fd5b50565b61438781613b0d565b811461439257600080fd5b50565b61439e81613b19565b81146143a957600080fd5b50565b6143b581613b65565b81146143c057600080fd5b5056fea2646970667358221220c3036a660e652c1c54ee5438eef7930cf8d4a8df292f8c1c063d2b270fa0cc5064736f6c63430008040033",
  "linkReferences": {},
  "deployedLinkReferences": {}
}