{
  "_format": "hh-sol-artifact-1",
  "contractName": "PONC",
  "sourceName": "contracts/PONC.sol",
  "abi": [
    {
      "inputs": [],
      "stateMutability": "nonpayable",
      "type": "constructor"
    },
    {
      "anonymous": false,
      "inputs": [
        {
          "indexed": true,
          "internalType": "address",
          "name": "owner",
          "type": "address"
        },
        {
          "indexed": true,
          "internalType": "address",
          "name": "approved",
          "type": "address"
        },
        {
          "indexed": true,
          "internalType": "uint256",
          "name": "tokenId",
          "type": "uint256"
        }
      ],
      "name": "Approval",
      "type": "event"
    },
    {
      "anonymous": false,
      "inputs": [
        {
          "indexed": true,
          "internalType": "address",
          "name": "owner",
          "type": "address"
        },
        {
          "indexed": true,
          "internalType": "address",
          "name": "operator",
          "type": "address"
        },
        {
          "indexed": false,
          "internalType": "bool",
          "name": "approved",
          "type": "bool"
        }
      ],
      "name": "ApprovalForAll",
      "type": "event"
    },
    {
      "anonymous": false,
      "inputs": [
        {
          "indexed": true,
          "internalType": "uint256",
          "name": "tokenId",
          "type": "uint256"
        },
        {
          "indexed": false,
          "internalType": "address",
          "name": "seller",
          "type": "address"
        },
        {
          "indexed": false,
          "internalType": "address",
          "name": "owner",
          "type": "address"
        },
        {
          "indexed": false,
          "internalType": "uint256",
          "name": "price",
          "type": "uint256"
        },
        {
          "indexed": false,
          "internalType": "bool",
          "name": "sold",
          "type": "bool"
        }
      ],
      "name": "NewsPublished",
      "type": "event"
    },
    {
      "anonymous": false,
      "inputs": [
        {
          "indexed": true,
          "internalType": "address",
          "name": "from",
          "type": "address"
        },
        {
          "indexed": true,
          "internalType": "address",
          "name": "to",
          "type": "address"
        },
        {
          "indexed": true,
          "internalType": "uint256",
          "name": "tokenId",
          "type": "uint256"
        }
      ],
      "name": "Transfer",
      "type": "event"
    },
    {
      "inputs": [
        {
          "internalType": "address",
          "name": "to",
          "type": "address"
        },
        {
          "internalType": "uint256",
          "name": "tokenId",
          "type": "uint256"
        }
      ],
      "name": "approve",
      "outputs": [],
      "stateMutability": "nonpayable",
      "type": "function"
    },
    {
      "inputs": [
        {
          "internalType": "address",
          "name": "owner",
          "type": "address"
        }
      ],
      "name": "balanceOf",
      "outputs": [
        {
          "internalType": "uint256",
          "name": "",
          "type": "uint256"
        }
      ],
      "stateMutability": "view",
      "type": "function"
    },
    {
      "inputs": [
        {
          "internalType": "uint256",
          "name": "tokenId",
          "type": "uint256"
        }
      ],
      "name": "createMarketSale",
      "outputs": [],
      "stateMutability": "payable",
      "type": "function"
    },
    {
      "inputs": [],
      "name": "fetchAllPublishedNews",
      "outputs": [
        {
          "components": [
            {
              "internalType": "uint256",
              "name": "tokenId",
              "type": "uint256"
            },
            {
              "internalType": "address payable",
              "name": "seller",
              "type": "address"
            },
            {
              "internalType": "address payable",
              "name": "owner",
              "type": "address"
            },
            {
              "internalType": "uint256",
              "name": "price",
              "type": "uint256"
            },
            {
              "internalType": "bool",
              "name": "sold",
              "type": "bool"
            }
          ],
          "internalType": "struct PONC.MarketItem[]",
          "name": "",
          "type": "tuple[]"
        }
      ],
      "stateMutability": "view",
      "type": "function"
    },
    {
      "inputs": [],
      "name": "fetchMyNews",
      "outputs": [
        {
          "components": [
            {
              "internalType": "uint256",
              "name": "tokenId",
              "type": "uint256"
            },
            {
              "internalType": "address payable",
              "name": "seller",
              "type": "address"
            },
            {
              "internalType": "address payable",
              "name": "owner",
              "type": "address"
            },
            {
              "internalType": "uint256",
              "name": "price",
              "type": "uint256"
            },
            {
              "internalType": "bool",
              "name": "sold",
              "type": "bool"
            }
          ],
          "internalType": "struct PONC.MarketItem[]",
          "name": "",
          "type": "tuple[]"
        }
      ],
      "stateMutability": "view",
      "type": "function"
    },
    {
      "inputs": [],
      "name": "fetchMyPublishedNews",
      "outputs": [
        {
          "components": [
            {
              "internalType": "uint256",
              "name": "tokenId",
              "type": "uint256"
            },
            {
              "internalType": "address payable",
              "name": "seller",
              "type": "address"
            },
            {
              "internalType": "address payable",
              "name": "owner",
              "type": "address"
            },
            {
              "internalType": "uint256",
              "name": "price",
              "type": "uint256"
            },
            {
              "internalType": "bool",
              "name": "sold",
              "type": "bool"
            }
          ],
          "internalType": "struct PONC.MarketItem[]",
          "name": "",
          "type": "tuple[]"
        }
      ],
      "stateMutability": "view",
      "type": "function"
    },
    {
      "inputs": [
        {
          "internalType": "uint256",
          "name": "tokenId",
          "type": "uint256"
        }
      ],
      "name": "getApproved",
      "outputs": [
        {
          "internalType": "address",
          "name": "",
          "type": "address"
        }
      ],
      "stateMutability": "view",
      "type": "function"
    },
    {
      "inputs": [
        {
          "internalType": "uint256",
          "name": "verification_id",
          "type": "uint256"
        }
      ],
      "name": "getJournalistId",
      "outputs": [
        {
          "components": [
            {
              "internalType": "uint256",
              "name": "verification_id",
              "type": "uint256"
            },
            {
              "internalType": "address",
              "name": "jornalist_address",
              "type": "address"
            }
          ],
          "internalType": "struct PONC.JournalistProfile",
          "name": "",
          "type": "tuple"
        }
      ],
      "stateMutability": "view",
      "type": "function"
    },
    {
      "inputs": [],
      "name": "getListingPrice",
      "outputs": [
        {
          "internalType": "uint256",
          "name": "",
          "type": "uint256"
        }
      ],
      "stateMutability": "view",
      "type": "function"
    },
    {
      "inputs": [
        {
          "internalType": "address",
          "name": "owner",
          "type": "address"
        },
        {
          "internalType": "address",
          "name": "operator",
          "type": "address"
        }
      ],
      "name": "isApprovedForAll",
      "outputs": [
        {
          "internalType": "bool",
          "name": "",
          "type": "bool"
        }
      ],
      "stateMutability": "view",
      "type": "function"
    },
    {
      "inputs": [],
      "name": "name",
      "outputs": [
        {
          "internalType": "string",
          "name": "",
          "type": "string"
        }
      ],
      "stateMutability": "view",
      "type": "function"
    },
    {
      "inputs": [
        {
          "internalType": "uint256",
          "name": "tokenId",
          "type": "uint256"
        }
      ],
      "name": "ownerOf",
      "outputs": [
        {
          "internalType": "address",
          "name": "",
          "type": "address"
        }
      ],
      "stateMutability": "view",
      "type": "function"
    },
    {
      "inputs": [
        {
          "internalType": "string",
          "name": "newsUri",
          "type": "string"
        },
        {
          "internalType": "uint256",
          "name": "price",
          "type": "uint256"
        },
        {
          "internalType": "uint256",
          "name": "journalistId",
          "type": "uint256"
        }
      ],
      "name": "publishNews",
      "outputs": [
        {
          "internalType": "uint256",
          "name": "",
          "type": "uint256"
        }
      ],
      "stateMutability": "payable",
      "type": "function"
    },
    {
      "inputs": [
        {
          "internalType": "uint256",
          "name": "verification_id",
          "type": "uint256"
        }
      ],
      "name": "registerJournalist",
      "outputs": [
        {
          "internalType": "uint256",
          "name": "",
          "type": "uint256"
        }
      ],
      "stateMutability": "nonpayable",
      "type": "function"
    },
    {
      "inputs": [
        {
          "internalType": "uint256",
          "name": "tokenId",
          "type": "uint256"
        },
        {
          "internalType": "uint256",
          "name": "price",
          "type": "uint256"
        }
      ],
      "name": "resellToken",
      "outputs": [],
      "stateMutability": "payable",
      "type": "function"
    },
    {
      "inputs": [
        {
          "internalType": "address",
          "name": "from",
          "type": "address"
        },
        {
          "internalType": "address",
          "name": "to",
          "type": "address"
        },
        {
          "internalType": "uint256",
          "name": "tokenId",
          "type": "uint256"
        }
      ],
      "name": "safeTransferFrom",
      "outputs": [],
      "stateMutability": "nonpayable",
      "type": "function"
    },
    {
      "inputs": [
        {
          "internalType": "address",
          "name": "from",
          "type": "address"
        },
        {
          "internalType": "address",
          "name": "to",
          "type": "address"
        },
        {
          "internalType": "uint256",
          "name": "tokenId",
          "type": "uint256"
        },
        {
          "internalType": "bytes",
          "name": "_data",
          "type": "bytes"
        }
      ],
      "name": "safeTransferFrom",
      "outputs": [],
      "stateMutability": "nonpayable",
      "type": "function"
    },
    {
      "inputs": [
        {
          "internalType": "address",
          "name": "operator",
          "type": "address"
        },
        {
          "internalType": "bool",
          "name": "approved",
          "type": "bool"
        }
      ],
      "name": "setApprovalForAll",
      "outputs": [],
      "stateMutability": "nonpayable",
      "type": "function"
    },
    {
      "inputs": [
        {
          "internalType": "bytes4",
          "name": "interfaceId",
          "type": "bytes4"
        }
      ],
      "name": "supportsInterface",
      "outputs": [
        {
          "internalType": "bool",
          "name": "",
          "type": "bool"
        }
      ],
      "stateMutability": "view",
      "type": "function"
    },
    {
      "inputs": [],
      "name": "symbol",
      "outputs": [
        {
          "internalType": "string",
          "name": "",
          "type": "string"
        }
      ],
      "stateMutability": "view",
      "type": "function"
    },
    {
      "inputs": [
        {
          "internalType": "uint256",
          "name": "tokenId",
          "type": "uint256"
        }
      ],
      "name": "tokenURI",
      "outputs": [
        {
          "internalType": "string",
          "name": "",
          "type": "string"
        }
      ],
      "stateMutability": "view",
      "type": "function"
    },
    {
      "inputs": [
        {
          "internalType": "address",
          "name": "from",
          "type": "address"
        },
        {
          "internalType": "address",
          "name": "to",
          "type": "address"
        },
        {
          "internalType": "uint256",
          "name": "tokenId",
          "type": "uint256"
        }
      ],
      "name": "transferFrom",
      "outputs": [],
      "stateMutability": "nonpayable",
      "type": "function"
    },
    {
      "inputs": [
        {
          "internalType": "uint256",
          "name": "_listingPrice",
          "type": "uint256"
        }
      ],
      "name": "updateListingPrice",
      "outputs": [],
      "stateMutability": "payable",
      "type": "function"
    }
  ],
  "bytecode": "0x60806040526658d15e17628000600a553480156200001c57600080fd5b506040518060400160405280601a81526020017f50726f6f66204f66204e65777320436f6e747269627574696f6e0000000000008152506040518060400160405280600481526020017f504f4e43000000000000000000000000000000000000000000000000000000008152508160009080519060200190620000a192919062000104565b508060019080519060200190620000ba92919062000104565b50505033600b60006101000a81548173ffffffffffffffffffffffffffffffffffffffff021916908373ffffffffffffffffffffffffffffffffffffffff16021790555062000219565b8280546200011290620001b4565b90600052602060002090601f01602090048101928262000136576000855562000182565b82601f106200015157805160ff191683800117855562000182565b8280016001018555821562000182579182015b828111156200018157825182559160200191906001019062000164565b5b50905062000191919062000195565b5090565b5b80821115620001b057600081600090555060010162000196565b5090565b60006002820490506001821680620001cd57607f821691505b60208210811415620001e457620001e3620001ea565b5b50919050565b7f4e487b7100000000000000000000000000000000000000000000000000000000600052602260045260246000fd5b61455780620002296000396000f3fe6080604052600436106101405760003560e01c80635ae45570116100b6578063ae677aa31161006f578063ae677aa314610489578063b88d4fde146104a5578063be9af536146104ce578063c87b56dd146104ea578063e219fc7514610527578063e985e9c51461054357610140565b80635ae45570146103535780635b20080a146103905780636352211e146103bb57806370a08231146103f857806395d89b4114610435578063a22cb4651461046057610140565b80630da07ed8116101085780630da07ed81461023e57806312e855851461026957806323b872dd1461029457806334f9e279146102bd5780633a100598146102fa57806342842e0e1461032a57610140565b806301ffc9a71461014557806306fdde0314610182578063081812fc146101ad578063095ea7b3146101ea5780630a8c707014610213575b600080fd5b34801561015157600080fd5b5061016c6004803603810190610167919061302b565b610580565b6040516101799190613756565b60405180910390f35b34801561018e57600080fd5b50610197610662565b6040516101a49190613771565b60405180910390f35b3480156101b957600080fd5b506101d460048036038101906101cf91906130e4565b6106f4565b6040516101e19190613688565b60405180910390f35b3480156101f657600080fd5b50610211600480360381019061020c9190612fef565b610779565b005b34801561021f57600080fd5b50610228610891565b6040516102359190613734565b60405180910390f35b34801561024a57600080fd5b50610253610aac565b6040516102609190613734565b60405180910390f35b34801561027557600080fd5b5061027e610de6565b60405161028b9190613a6e565b60405180910390f35b3480156102a057600080fd5b506102bb60048036038101906102b69190612ee9565b610df0565b005b3480156102c957600080fd5b506102e460048036038101906102df91906130e4565b610e50565b6040516102f19190613a6e565b60405180910390f35b610314600480360381019061030f919061307d565b610f08565b6040516103219190613a6e565b60405180910390f35b34801561033657600080fd5b50610351600480360381019061034c9190612ee9565b610fef565b005b34801561035f57600080fd5b5061037a600480360381019061037591906130e4565b61100f565b6040516103879190613a53565b60405180910390f35b34801561039c57600080fd5b506103a561109c565b6040516103b29190613734565b60405180910390f35b3480156103c757600080fd5b506103e260048036038101906103dd91906130e4565b6113d6565b6040516103ef9190613688565b60405180910390f35b34801561040457600080fd5b5061041f600480360381019061041a9190612e84565b611488565b60405161042c9190613a6e565b60405180910390f35b34801561044157600080fd5b5061044a611540565b6040516104579190613771565b60405180910390f35b34801561046c57600080fd5b5061048760048036038101906104829190612fb3565b6115d2565b005b6104a3600480360381019061049e91906130e4565b6115e8565b005b3480156104b157600080fd5b506104cc60048036038101906104c79190612f38565b611682565b005b6104e860048036038101906104e391906130e4565b6116e4565b005b3480156104f657600080fd5b50610511600480360381019061050c91906130e4565b611922565b60405161051e9190613771565b60405180910390f35b610541600480360381019061053c919061310d565b611a74565b005b34801561054f57600080fd5b5061056a60048036038101906105659190612ead565b611c69565b6040516105779190613756565b60405180910390f35b60007f80ac58cd000000000000000000000000000000000000000000000000000000007bffffffffffffffffffffffffffffffffffffffffffffffffffffffff1916827bffffffffffffffffffffffffffffffffffffffffffffffffffffffff1916148061064b57507f5b5e139f000000000000000000000000000000000000000000000000000000007bffffffffffffffffffffffffffffffffffffffffffffffffffffffff1916827bffffffffffffffffffffffffffffffffffffffffffffffffffffffff1916145b8061065b575061065a82611cfd565b5b9050919050565b60606000805461067190613d0f565b80601f016020809104026020016040519081016040528092919081815260200182805461069d90613d0f565b80156106ea5780601f106106bf576101008083540402835291602001916106ea565b820191906000526020600020905b8154815290600101906020018083116106cd57829003601f168201915b5050505050905090565b60006106ff82611d67565b61073e576040517f08c379a000000000000000000000000000000000000000000000000000000000815260040161073590613993565b60405180910390fd5b6004600083815260200190815260200160002060009054906101000a900473ffffffffffffffffffffffffffffffffffffffff169050919050565b6000610784826113d6565b90508073ffffffffffffffffffffffffffffffffffffffff168373ffffffffffffffffffffffffffffffffffffffff1614156107f5576040517f08c379a00000000000000000000000000000000000000000000000000000000081526004016107ec906139d3565b60405180910390fd5b8073ffffffffffffffffffffffffffffffffffffffff16610814611dd3565b73ffffffffffffffffffffffffffffffffffffffff16148061084357506108428161083d611dd3565b611c69565b5b610882576040517f08c379a000000000000000000000000000000000000000000000000000000000815260040161087990613893565b60405180910390fd5b61088c8383611ddb565b505050565b6060600061089f6007611e94565b90506000808267ffffffffffffffff8111156108e4577f4e487b7100000000000000000000000000000000000000000000000000000000600052604160045260246000fd5b60405190808252806020026020018201604052801561091d57816020015b61090a612c1b565b8152602001906001900390816109025790505b50905060005b83811015610aa257600060018261093a9190613b8c565b90506000600c60008381526020019081526020016000209050806040518060a0016040529081600082015481526020016001820160009054906101000a900473ffffffffffffffffffffffffffffffffffffffff1673ffffffffffffffffffffffffffffffffffffffff1673ffffffffffffffffffffffffffffffffffffffff1681526020016002820160009054906101000a900473ffffffffffffffffffffffffffffffffffffffff1673ffffffffffffffffffffffffffffffffffffffff1673ffffffffffffffffffffffffffffffffffffffff168152602001600382015481526020016004820160009054906101000a900460ff161515151581525050848681518110610a73577f4e487b7100000000000000000000000000000000000000000000000000000000600052603260045260246000fd5b6020026020010181905250600185610a8b9190613b8c565b945050508080610a9a90613d72565b915050610923565b5080935050505090565b60606000610aba6007611e94565b905060008060005b83811015610b63573373ffffffffffffffffffffffffffffffffffffffff16600c6000600184610af29190613b8c565b815260200190815260200160002060010160009054906101000a900473ffffffffffffffffffffffffffffffffffffffff1673ffffffffffffffffffffffffffffffffffffffff161415610b5057600183610b4d9190613b8c565b92505b8080610b5b90613d72565b915050610ac2565b5060008267ffffffffffffffff811115610ba6577f4e487b7100000000000000000000000000000000000000000000000000000000600052604160045260246000fd5b604051908082528060200260200182016040528015610bdf57816020015b610bcc612c1b565b815260200190600190039081610bc45790505b50905060005b84811015610ddb573373ffffffffffffffffffffffffffffffffffffffff16600c6000600184610c159190613b8c565b815260200190815260200160002060010160009054906101000a900473ffffffffffffffffffffffffffffffffffffffff1673ffffffffffffffffffffffffffffffffffffffff161415610dc8576000600182610c729190613b8c565b90506000600c60008381526020019081526020016000209050806040518060a0016040529081600082015481526020016001820160009054906101000a900473ffffffffffffffffffffffffffffffffffffffff1673ffffffffffffffffffffffffffffffffffffffff1673ffffffffffffffffffffffffffffffffffffffff1681526020016002820160009054906101000a900473ffffffffffffffffffffffffffffffffffffffff1673ffffffffffffffffffffffffffffffffffffffff1673ffffffffffffffffffffffffffffffffffffffff168152602001600382015481526020016004820160009054906101000a900460ff161515151581525050848681518110610dab577f4e487b7100000000000000000000000000000000000000000000000000000000600052603260045260246000fd5b6020026020010181905250600185610dc39190613b8c565b945050505b8080610dd390613d72565b915050610be5565b508094505050505090565b6000600a54905090565b610e01610dfb611dd3565b82611ea2565b610e40576040517f08c379a0000000000000000000000000000000000000000000000000000000008152600401610e3790613a13565b60405180910390fd5b610e4b838383611f80565b505050565b6000610e5c60096121e7565b6040518060400160405280610e716009611e94565b81526020013373ffffffffffffffffffffffffffffffffffffffff16815250600d60008481526020019081526020016000206000820151816000015560208201518160010160006101000a81548173ffffffffffffffffffffffffffffffffffffffff021916908373ffffffffffffffffffffffffffffffffffffffff160217905550905050610f016009611e94565b9050919050565b60003373ffffffffffffffffffffffffffffffffffffffff16600d600084815260200190815260200160002060010160009054906101000a900473ffffffffffffffffffffffffffffffffffffffff1673ffffffffffffffffffffffffffffffffffffffff1614610fae576040517f08c379a0000000000000000000000000000000000000000000000000000000008152600401610fa590613813565b60405180910390fd5b610fb860076121e7565b6000610fc46007611e94565b9050610fd033826121fd565b610fda81866123d7565b610fe4818561244b565b809150509392505050565b61100a83838360405180602001604052806000815250611682565b505050565b611017612c78565b600d6000838152602001908152602001600020604051806040016040529081600082015481526020016001820160009054906101000a900473ffffffffffffffffffffffffffffffffffffffff1673ffffffffffffffffffffffffffffffffffffffff1673ffffffffffffffffffffffffffffffffffffffff16815250509050919050565b606060006110aa6007611e94565b905060008060005b83811015611153573373ffffffffffffffffffffffffffffffffffffffff16600c60006001846110e29190613b8c565b815260200190815260200160002060020160009054906101000a900473ffffffffffffffffffffffffffffffffffffffff1673ffffffffffffffffffffffffffffffffffffffff1614156111405760018361113d9190613b8c565b92505b808061114b90613d72565b9150506110b2565b5060008267ffffffffffffffff811115611196577f4e487b7100000000000000000000000000000000000000000000000000000000600052604160045260246000fd5b6040519080825280602002602001820160405280156111cf57816020015b6111bc612c1b565b8152602001906001900390816111b45790505b50905060005b848110156113cb573373ffffffffffffffffffffffffffffffffffffffff16600c60006001846112059190613b8c565b815260200190815260200160002060020160009054906101000a900473ffffffffffffffffffffffffffffffffffffffff1673ffffffffffffffffffffffffffffffffffffffff1614156113b85760006001826112629190613b8c565b90506000600c60008381526020019081526020016000209050806040518060a0016040529081600082015481526020016001820160009054906101000a900473ffffffffffffffffffffffffffffffffffffffff1673ffffffffffffffffffffffffffffffffffffffff1673ffffffffffffffffffffffffffffffffffffffff1681526020016002820160009054906101000a900473ffffffffffffffffffffffffffffffffffffffff1673ffffffffffffffffffffffffffffffffffffffff1673ffffffffffffffffffffffffffffffffffffffff168152602001600382015481526020016004820160009054906101000a900460ff16151515158152505084868151811061139b577f4e487b7100000000000000000000000000000000000000000000000000000000600052603260045260246000fd5b60200260200101819052506001856113b39190613b8c565b945050505b80806113c390613d72565b9150506111d5565b508094505050505090565b6000806002600084815260200190815260200160002060009054906101000a900473ffffffffffffffffffffffffffffffffffffffff169050600073ffffffffffffffffffffffffffffffffffffffff168173ffffffffffffffffffffffffffffffffffffffff16141561147f576040517f08c379a0000000000000000000000000000000000000000000000000000000008152600401611476906138d3565b60405180910390fd5b80915050919050565b60008073ffffffffffffffffffffffffffffffffffffffff168273ffffffffffffffffffffffffffffffffffffffff1614156114f9576040517f08c379a00000000000000000000000000000000000000000000000000000000081526004016114f0906138b3565b60405180910390fd5b600360008373ffffffffffffffffffffffffffffffffffffffff1673ffffffffffffffffffffffffffffffffffffffff168152602001908152602001600020549050919050565b60606001805461154f90613d0f565b80601f016020809104026020016040519081016040528092919081815260200182805461157b90613d0f565b80156115c85780601f1061159d576101008083540402835291602001916115c8565b820191906000526020600020905b8154815290600101906020018083116115ab57829003601f168201915b5050505050905090565b6115e46115dd611dd3565b83836125c7565b5050565b3373ffffffffffffffffffffffffffffffffffffffff16600b60009054906101000a900473ffffffffffffffffffffffffffffffffffffffff1673ffffffffffffffffffffffffffffffffffffffff1614611678576040517f08c379a000000000000000000000000000000000000000000000000000000000815260040161166f90613a33565b60405180910390fd5b80600a8190555050565b61169361168d611dd3565b83611ea2565b6116d2576040517f08c379a00000000000000000000000000000000000000000000000000000000081526004016116c990613a13565b60405180910390fd5b6116de84848484612734565b50505050565b6000600c60008381526020019081526020016000206003015490506000600c600084815260200190815260200160002060010160009054906101000a900473ffffffffffffffffffffffffffffffffffffffff16905081341461177c576040517f08c379a000000000000000000000000000000000000000000000000000000000815260040161177390613913565b60405180910390fd5b33600c600085815260200190815260200160002060020160006101000a81548173ffffffffffffffffffffffffffffffffffffffff021916908373ffffffffffffffffffffffffffffffffffffffff1602179055506001600c600085815260200190815260200160002060040160006101000a81548160ff0219169083151502179055506000600c600085815260200190815260200160002060010160006101000a81548173ffffffffffffffffffffffffffffffffffffffff021916908373ffffffffffffffffffffffffffffffffffffffff16021790555061186060086121e7565b61186b303385611f80565b600b60009054906101000a900473ffffffffffffffffffffffffffffffffffffffff1673ffffffffffffffffffffffffffffffffffffffff166108fc600a549081150290604051600060405180830381858888f193505050501580156118d5573d6000803e3d6000fd5b508073ffffffffffffffffffffffffffffffffffffffff166108fc349081150290604051600060405180830381858888f1935050505015801561191c573d6000803e3d6000fd5b50505050565b606061192d82611d67565b61196c576040517f08c379a000000000000000000000000000000000000000000000000000000000815260040161196390613953565b60405180910390fd5b600060066000848152602001908152602001600020805461198c90613d0f565b80601f01602080910402602001604051908101604052809291908181526020018280546119b890613d0f565b8015611a055780601f106119da57610100808354040283529160200191611a05565b820191906000526020600020905b8154815290600101906020018083116119e857829003601f168201915b505050505090506000611a16612790565b9050600081511415611a2c578192505050611a6f565b600082511115611a61578082604051602001611a49929190613664565b60405160208183030381529060405292505050611a6f565b611a6a846127a7565b925050505b919050565b3373ffffffffffffffffffffffffffffffffffffffff16600c600084815260200190815260200160002060020160009054906101000a900473ffffffffffffffffffffffffffffffffffffffff1673ffffffffffffffffffffffffffffffffffffffff1614611b18576040517f08c379a0000000000000000000000000000000000000000000000000000000008152600401611b0f90613973565b60405180910390fd5b600a543414611b5c576040517f08c379a0000000000000000000000000000000000000000000000000000000008152600401611b53906139f3565b60405180910390fd5b6000600c600084815260200190815260200160002060040160006101000a81548160ff02191690831515021790555080600c60008481526020019081526020016000206003018190555033600c600084815260200190815260200160002060010160006101000a81548173ffffffffffffffffffffffffffffffffffffffff021916908373ffffffffffffffffffffffffffffffffffffffff16021790555030600c600084815260200190815260200160002060020160006101000a81548173ffffffffffffffffffffffffffffffffffffffff021916908373ffffffffffffffffffffffffffffffffffffffff160217905550611c5a600861284e565b611c65333084611f80565b5050565b6000600560008473ffffffffffffffffffffffffffffffffffffffff1673ffffffffffffffffffffffffffffffffffffffff16815260200190815260200160002060008373ffffffffffffffffffffffffffffffffffffffff1673ffffffffffffffffffffffffffffffffffffffff16815260200190815260200160002060009054906101000a900460ff16905092915050565b60007f01ffc9a7000000000000000000000000000000000000000000000000000000007bffffffffffffffffffffffffffffffffffffffffffffffffffffffff1916827bffffffffffffffffffffffffffffffffffffffffffffffffffffffff1916149050919050565b60008073ffffffffffffffffffffffffffffffffffffffff166002600084815260200190815260200160002060009054906101000a900473ffffffffffffffffffffffffffffffffffffffff1673ffffffffffffffffffffffffffffffffffffffff1614159050919050565b600033905090565b816004600083815260200190815260200160002060006101000a81548173ffffffffffffffffffffffffffffffffffffffff021916908373ffffffffffffffffffffffffffffffffffffffff160217905550808273ffffffffffffffffffffffffffffffffffffffff16611e4e836113d6565b73ffffffffffffffffffffffffffffffffffffffff167f8c5be1e5ebec7d5bd14f71427d1e84f3dd0314c0f7b2291e5b200ac8c7c3b92560405160405180910390a45050565b600081600001549050919050565b6000611ead82611d67565b611eec576040517f08c379a0000000000000000000000000000000000000000000000000000000008152600401611ee390613873565b60405180910390fd5b6000611ef7836113d6565b90508073ffffffffffffffffffffffffffffffffffffffff168473ffffffffffffffffffffffffffffffffffffffff161480611f6657508373ffffffffffffffffffffffffffffffffffffffff16611f4e846106f4565b73ffffffffffffffffffffffffffffffffffffffff16145b80611f775750611f768185611c69565b5b91505092915050565b8273ffffffffffffffffffffffffffffffffffffffff16611fa0826113d6565b73ffffffffffffffffffffffffffffffffffffffff1614611ff6576040517f08c379a0000000000000000000000000000000000000000000000000000000008152600401611fed906137d3565b60405180910390fd5b600073ffffffffffffffffffffffffffffffffffffffff168273ffffffffffffffffffffffffffffffffffffffff161415612066576040517f08c379a000000000000000000000000000000000000000000000000000000000815260040161205d90613833565b60405180910390fd5b6120718383836128aa565b61207c600082611ddb565b6001600360008573ffffffffffffffffffffffffffffffffffffffff1673ffffffffffffffffffffffffffffffffffffffff16815260200190815260200160002060008282546120cc9190613c13565b925050819055506001600360008473ffffffffffffffffffffffffffffffffffffffff1673ffffffffffffffffffffffffffffffffffffffff16815260200190815260200160002060008282546121239190613b8c565b92505081905550816002600083815260200190815260200160002060006101000a81548173ffffffffffffffffffffffffffffffffffffffff021916908373ffffffffffffffffffffffffffffffffffffffff160217905550808273ffffffffffffffffffffffffffffffffffffffff168473ffffffffffffffffffffffffffffffffffffffff167fddf252ad1be2c89b69c2b068fc378daa952ba7f163c4a11628f55a4df523b3ef60405160405180910390a46121e28383836128af565b505050565b6001816000016000828254019250508190555050565b600073ffffffffffffffffffffffffffffffffffffffff168273ffffffffffffffffffffffffffffffffffffffff16141561226d576040517f08c379a000000000000000000000000000000000000000000000000000000000815260040161226490613933565b60405180910390fd5b61227681611d67565b156122b6576040517f08c379a00000000000000000000000000000000000000000000000000000000081526004016122ad906137f3565b60405180910390fd5b6122c2600083836128aa565b6001600360008473ffffffffffffffffffffffffffffffffffffffff1673ffffffffffffffffffffffffffffffffffffffff16815260200190815260200160002060008282546123129190613b8c565b92505081905550816002600083815260200190815260200160002060006101000a81548173ffffffffffffffffffffffffffffffffffffffff021916908373ffffffffffffffffffffffffffffffffffffffff160217905550808273ffffffffffffffffffffffffffffffffffffffff16600073ffffffffffffffffffffffffffffffffffffffff167fddf252ad1be2c89b69c2b068fc378daa952ba7f163c4a11628f55a4df523b3ef60405160405180910390a46123d3600083836128af565b5050565b6123e082611d67565b61241f576040517f08c379a0000000000000000000000000000000000000000000000000000000008152600401612416906138f3565b60405180910390fd5b80600660008481526020019081526020016000209080519060200190612446929190612ca8565b505050565b6040518060a001604052808381526020013373ffffffffffffffffffffffffffffffffffffffff1681526020013373ffffffffffffffffffffffffffffffffffffffff16815260200182815260200160001515815250600c60008481526020019081526020016000206000820151816000015560208201518160010160006101000a81548173ffffffffffffffffffffffffffffffffffffffff021916908373ffffffffffffffffffffffffffffffffffffffff16021790555060408201518160020160006101000a81548173ffffffffffffffffffffffffffffffffffffffff021916908373ffffffffffffffffffffffffffffffffffffffff1602179055506060820151816003015560808201518160040160006101000a81548160ff021916908315150217905550905050612584333084611f80565b817f1ee8f25b6149e094107d25be591f9aa10a9cd9e8f3c20d0e45667117d04b5df633308460006040516125bb94939291906136a3565b60405180910390a25050565b8173ffffffffffffffffffffffffffffffffffffffff168373ffffffffffffffffffffffffffffffffffffffff161415612636576040517f08c379a000000000000000000000000000000000000000000000000000000000815260040161262d90613853565b60405180910390fd5b80600560008573ffffffffffffffffffffffffffffffffffffffff1673ffffffffffffffffffffffffffffffffffffffff16815260200190815260200160002060008473ffffffffffffffffffffffffffffffffffffffff1673ffffffffffffffffffffffffffffffffffffffff16815260200190815260200160002060006101000a81548160ff0219169083151502179055508173ffffffffffffffffffffffffffffffffffffffff168373ffffffffffffffffffffffffffffffffffffffff167f17307eab39ab6107e8899845ad3d59bd9653f200f220920489ca2b5937696c31836040516127279190613756565b60405180910390a3505050565b61273f848484611f80565b61274b848484846128b4565b61278a576040517f08c379a0000000000000000000000000000000000000000000000000000000008152600401612781906137b3565b60405180910390fd5b50505050565b606060405180602001604052806000815250905090565b60606127b282611d67565b6127f1576040517f08c379a00000000000000000000000000000000000000000000000000000000081526004016127e8906139b3565b60405180910390fd5b60006127fb612790565b9050600081511161281b5760405180602001604052806000815250612846565b8061282584612a4b565b604051602001612836929190613664565b6040516020818303038152906040525b915050919050565b6000816000015490506000811161289a576040517f08c379a000000000000000000000000000000000000000000000000000000000815260040161289190613793565b60405180910390fd5b6001810382600001819055505050565b505050565b505050565b60006128d58473ffffffffffffffffffffffffffffffffffffffff16612bf8565b15612a3e578373ffffffffffffffffffffffffffffffffffffffff1663150b7a026128fe611dd3565b8786866040518563ffffffff1660e01b815260040161292094939291906136e8565b602060405180830381600087803b15801561293a57600080fd5b505af192505050801561296b57506040513d601f19601f820116820180604052508101906129689190613054565b60015b6129ee573d806000811461299b576040519150601f19603f3d011682016040523d82523d6000602084013e6129a0565b606091505b506000815114156129e6576040517f08c379a00000000000000000000000000000000000000000000000000000000081526004016129dd906137b3565b60405180910390fd5b805181602001fd5b63150b7a0260e01b7bffffffffffffffffffffffffffffffffffffffffffffffffffffffff1916817bffffffffffffffffffffffffffffffffffffffffffffffffffffffff191614915050612a43565b600190505b949350505050565b60606000821415612a93576040518060400160405280600181526020017f30000000000000000000000000000000000000000000000000000000000000008152509050612bf3565b600082905060005b60008214612ac5578080612aae90613d72565b915050600a82612abe9190613be2565b9150612a9b565b60008167ffffffffffffffff811115612b07577f4e487b7100000000000000000000000000000000000000000000000000000000600052604160045260246000fd5b6040519080825280601f01601f191660200182016040528015612b395781602001600182028036833780820191505090505b5090505b60008514612bec57600182612b529190613c13565b9150600a85612b619190613dbb565b6030612b6d9190613b8c565b60f81b818381518110612ba9577f4e487b7100000000000000000000000000000000000000000000000000000000600052603260045260246000fd5b60200101907effffffffffffffffffffffffffffffffffffffffffffffffffffffffffffff1916908160001a905350600a85612be59190613be2565b9450612b3d565b8093505050505b919050565b6000808273ffffffffffffffffffffffffffffffffffffffff163b119050919050565b6040518060a0016040528060008152602001600073ffffffffffffffffffffffffffffffffffffffff168152602001600073ffffffffffffffffffffffffffffffffffffffff168152602001600081526020016000151581525090565b604051806040016040528060008152602001600073ffffffffffffffffffffffffffffffffffffffff1681525090565b828054612cb490613d0f565b90600052602060002090601f016020900481019282612cd65760008555612d1d565b82601f10612cef57805160ff1916838001178555612d1d565b82800160010185558215612d1d579182015b82811115612d1c578251825591602001919060010190612d01565b5b509050612d2a9190612d2e565b5090565b5b80821115612d47576000816000905550600101612d2f565b5090565b6000612d5e612d5984613aae565b613a89565b905082815260208101848484011115612d7657600080fd5b612d81848285613ccd565b509392505050565b6000612d9c612d9784613adf565b613a89565b905082815260208101848484011115612db457600080fd5b612dbf848285613ccd565b509392505050565b600081359050612dd6816144c5565b92915050565b600081359050612deb816144dc565b92915050565b600081359050612e00816144f3565b92915050565b600081519050612e15816144f3565b92915050565b600082601f830112612e2c57600080fd5b8135612e3c848260208601612d4b565b91505092915050565b600082601f830112612e5657600080fd5b8135612e66848260208601612d89565b91505092915050565b600081359050612e7e8161450a565b92915050565b600060208284031215612e9657600080fd5b6000612ea484828501612dc7565b91505092915050565b60008060408385031215612ec057600080fd5b6000612ece85828601612dc7565b9250506020612edf85828601612dc7565b9150509250929050565b600080600060608486031215612efe57600080fd5b6000612f0c86828701612dc7565b9350506020612f1d86828701612dc7565b9250506040612f2e86828701612e6f565b9150509250925092565b60008060008060808587031215612f4e57600080fd5b6000612f5c87828801612dc7565b9450506020612f6d87828801612dc7565b9350506040612f7e87828801612e6f565b925050606085013567ffffffffffffffff811115612f9b57600080fd5b612fa787828801612e1b565b91505092959194509250565b60008060408385031215612fc657600080fd5b6000612fd485828601612dc7565b9250506020612fe585828601612ddc565b9150509250929050565b6000806040838503121561300257600080fd5b600061301085828601612dc7565b925050602061302185828601612e6f565b9150509250929050565b60006020828403121561303d57600080fd5b600061304b84828501612df1565b91505092915050565b60006020828403121561306657600080fd5b600061307484828501612e06565b91505092915050565b60008060006060848603121561309257600080fd5b600084013567ffffffffffffffff8111156130ac57600080fd5b6130b886828701612e45565b93505060206130c986828701612e6f565b92505060406130da86828701612e6f565b9150509250925092565b6000602082840312156130f657600080fd5b600061310484828501612e6f565b91505092915050565b6000806040838503121561312057600080fd5b600061312e85828601612e6f565b925050602061313f85828601612e6f565b9150509250929050565b600061315583836135de565b60a08301905092915050565b61316a81613c59565b82525050565b61317981613c47565b82525050565b61318881613c47565b82525050565b600061319982613b20565b6131a38185613b4e565b93506131ae83613b10565b8060005b838110156131df5781516131c68882613149565b97506131d183613b41565b9250506001810190506131b2565b5085935050505092915050565b6131f581613c6b565b82525050565b61320481613c6b565b82525050565b600061321582613b2b565b61321f8185613b5f565b935061322f818560208601613cdc565b61323881613ea8565b840191505092915050565b600061324e82613b36565b6132588185613b70565b9350613268818560208601613cdc565b61327181613ea8565b840191505092915050565b600061328782613b36565b6132918185613b81565b93506132a1818560208601613cdc565b80840191505092915050565b60006132ba601b83613b70565b91506132c582613eb9565b602082019050919050565b60006132dd603283613b70565b91506132e882613ee2565b604082019050919050565b6000613300602583613b70565b915061330b82613f31565b604082019050919050565b6000613323601c83613b70565b915061332e82613f80565b602082019050919050565b6000613346601f83613b70565b915061335182613fa9565b602082019050919050565b6000613369602483613b70565b915061337482613fd2565b604082019050919050565b600061338c601983613b70565b915061339782614021565b602082019050919050565b60006133af602c83613b70565b91506133ba8261404a565b604082019050919050565b60006133d2603883613b70565b91506133dd82614099565b604082019050919050565b60006133f5602a83613b70565b9150613400826140e8565b604082019050919050565b6000613418602983613b70565b915061342382614137565b604082019050919050565b600061343b602e83613b70565b915061344682614186565b604082019050919050565b600061345e604083613b70565b9150613469826141d5565b604082019050919050565b6000613481602083613b70565b915061348c82614224565b602082019050919050565b60006134a4603183613b70565b91506134af8261424d565b604082019050919050565b60006134c7602a83613b70565b91506134d28261429c565b604082019050919050565b60006134ea602c83613b70565b91506134f5826142eb565b604082019050919050565b600061350d602f83613b70565b91506135188261433a565b604082019050919050565b6000613530602183613b70565b915061353b82614389565b604082019050919050565b6000613553602483613b70565b915061355e826143d8565b604082019050919050565b6000613576603183613b70565b915061358182614427565b604082019050919050565b6000613599603083613b70565b91506135a482614476565b604082019050919050565b6040820160008201516135c56000850182613646565b5060208201516135d86020850182613170565b50505050565b60a0820160008201516135f46000850182613646565b5060208201516136076020850182613161565b50604082015161361a6040850182613161565b50606082015161362d6060850182613646565b50608082015161364060808501826131ec565b50505050565b61364f81613cc3565b82525050565b61365e81613cc3565b82525050565b6000613670828561327c565b915061367c828461327c565b91508190509392505050565b600060208201905061369d600083018461317f565b92915050565b60006080820190506136b8600083018761317f565b6136c5602083018661317f565b6136d26040830185613655565b6136df60608301846131fb565b95945050505050565b60006080820190506136fd600083018761317f565b61370a602083018661317f565b6137176040830185613655565b8181036060830152613729818461320a565b905095945050505050565b6000602082019050818103600083015261374e818461318e565b905092915050565b600060208201905061376b60008301846131fb565b92915050565b6000602082019050818103600083015261378b8184613243565b905092915050565b600060208201905081810360008301526137ac816132ad565b9050919050565b600060208201905081810360008301526137cc816132d0565b9050919050565b600060208201905081810360008301526137ec816132f3565b9050919050565b6000602082019050818103600083015261380c81613316565b9050919050565b6000602082019050818103600083015261382c81613339565b9050919050565b6000602082019050818103600083015261384c8161335c565b9050919050565b6000602082019050818103600083015261386c8161337f565b9050919050565b6000602082019050818103600083015261388c816133a2565b9050919050565b600060208201905081810360008301526138ac816133c5565b9050919050565b600060208201905081810360008301526138cc816133e8565b9050919050565b600060208201905081810360008301526138ec8161340b565b9050919050565b6000602082019050818103600083015261390c8161342e565b9050919050565b6000602082019050818103600083015261392c81613451565b9050919050565b6000602082019050818103600083015261394c81613474565b9050919050565b6000602082019050818103600083015261396c81613497565b9050919050565b6000602082019050818103600083015261398c816134ba565b9050919050565b600060208201905081810360008301526139ac816134dd565b9050919050565b600060208201905081810360008301526139cc81613500565b9050919050565b600060208201905081810360008301526139ec81613523565b9050919050565b60006020820190508181036000830152613a0c81613546565b9050919050565b60006020820190508181036000830152613a2c81613569565b9050919050565b60006020820190508181036000830152613a4c8161358c565b9050919050565b6000604082019050613a6860008301846135af565b92915050565b6000602082019050613a836000830184613655565b92915050565b6000613a93613aa4565b9050613a9f8282613d41565b919050565b6000604051905090565b600067ffffffffffffffff821115613ac957613ac8613e79565b5b613ad282613ea8565b9050602081019050919050565b600067ffffffffffffffff821115613afa57613af9613e79565b5b613b0382613ea8565b9050602081019050919050565b6000819050602082019050919050565b600081519050919050565b600081519050919050565b600081519050919050565b6000602082019050919050565b600082825260208201905092915050565b600082825260208201905092915050565b600082825260208201905092915050565b600081905092915050565b6000613b9782613cc3565b9150613ba283613cc3565b9250827fffffffffffffffffffffffffffffffffffffffffffffffffffffffffffffffff03821115613bd757613bd6613dec565b5b828201905092915050565b6000613bed82613cc3565b9150613bf883613cc3565b925082613c0857613c07613e1b565b5b828204905092915050565b6000613c1e82613cc3565b9150613c2983613cc3565b925082821015613c3c57613c3b613dec565b5b828203905092915050565b6000613c5282613ca3565b9050919050565b6000613c6482613ca3565b9050919050565b60008115159050919050565b60007fffffffff0000000000000000000000000000000000000000000000000000000082169050919050565b600073ffffffffffffffffffffffffffffffffffffffff82169050919050565b6000819050919050565b82818337600083830152505050565b60005b83811015613cfa578082015181840152602081019050613cdf565b83811115613d09576000848401525b50505050565b60006002820490506001821680613d2757607f821691505b60208210811415613d3b57613d3a613e4a565b5b50919050565b613d4a82613ea8565b810181811067ffffffffffffffff82111715613d6957613d68613e79565b5b80604052505050565b6000613d7d82613cc3565b91507fffffffffffffffffffffffffffffffffffffffffffffffffffffffffffffffff821415613db057613daf613dec565b5b600182019050919050565b6000613dc682613cc3565b9150613dd183613cc3565b925082613de157613de0613e1b565b5b828206905092915050565b7f4e487b7100000000000000000000000000000000000000000000000000000000600052601160045260246000fd5b7f4e487b7100000000000000000000000000000000000000000000000000000000600052601260045260246000fd5b7f4e487b7100000000000000000000000000000000000000000000000000000000600052602260045260246000fd5b7f4e487b7100000000000000000000000000000000000000000000000000000000600052604160045260246000fd5b6000601f19601f8301169050919050565b7f436f756e7465723a2064656372656d656e74206f766572666c6f770000000000600082015250565b7f4552433732313a207472616e7366657220746f206e6f6e20455243373231526560008201527f63656976657220696d706c656d656e7465720000000000000000000000000000602082015250565b7f4552433732313a207472616e736665722066726f6d20696e636f72726563742060008201527f6f776e6572000000000000000000000000000000000000000000000000000000602082015250565b7f4552433732313a20746f6b656e20616c7265616479206d696e74656400000000600082015250565b7f5075626c6973686572206e6f7420612072656769737465726564207573657200600082015250565b7f4552433732313a207472616e7366657220746f20746865207a65726f2061646460008201527f7265737300000000000000000000000000000000000000000000000000000000602082015250565b7f4552433732313a20617070726f766520746f2063616c6c657200000000000000600082015250565b7f4552433732313a206f70657261746f7220717565727920666f72206e6f6e657860008201527f697374656e7420746f6b656e0000000000000000000000000000000000000000602082015250565b7f4552433732313a20617070726f76652063616c6c6572206973206e6f74206f7760008201527f6e6572206e6f7220617070726f76656420666f7220616c6c0000000000000000602082015250565b7f4552433732313a2062616c616e636520717565727920666f7220746865207a6560008201527f726f206164647265737300000000000000000000000000000000000000000000602082015250565b7f4552433732313a206f776e657220717565727920666f72206e6f6e657869737460008201527f656e7420746f6b656e0000000000000000000000000000000000000000000000602082015250565b7f45524337323155524953746f726167653a2055524920736574206f66206e6f6e60008201527f6578697374656e7420746f6b656e000000000000000000000000000000000000602082015250565b7f506c65617365207375626d6974207468652061736b696e67207072696365206960008201527f6e206f7264657220746f20636f6d706c65746520746865207075726368617365602082015250565b7f4552433732313a206d696e7420746f20746865207a65726f2061646472657373600082015250565b7f45524337323155524953746f726167653a2055524920717565727920666f722060008201527f6e6f6e6578697374656e7420746f6b656e000000000000000000000000000000602082015250565b7f4f6e6c79206974656d206f776e65722063616e20706572666f726d207468697360008201527f206f7065726174696f6e00000000000000000000000000000000000000000000602082015250565b7f4552433732313a20617070726f76656420717565727920666f72206e6f6e657860008201527f697374656e7420746f6b656e0000000000000000000000000000000000000000602082015250565b7f4552433732314d657461646174613a2055524920717565727920666f72206e6f60008201527f6e6578697374656e7420746f6b656e0000000000000000000000000000000000602082015250565b7f4552433732313a20617070726f76616c20746f2063757272656e74206f776e6560008201527f7200000000000000000000000000000000000000000000000000000000000000602082015250565b7f5072696365206d75737420626520657175616c20746f206c697374696e67207060008201527f7269636500000000000000000000000000000000000000000000000000000000602082015250565b7f4552433732313a207472616e736665722063616c6c6572206973206e6f74206f60008201527f776e6572206e6f7220617070726f766564000000000000000000000000000000602082015250565b7f4f6e6c79206d61726b6574706c616365206f776e65722063616e20757064617460008201527f65206c697374696e672070726963652e00000000000000000000000000000000602082015250565b6144ce81613c47565b81146144d957600080fd5b50565b6144e581613c6b565b81146144f057600080fd5b50565b6144fc81613c77565b811461450757600080fd5b50565b61451381613cc3565b811461451e57600080fd5b5056fea264697066735822122029a36c8133aad78774b65f5c124e55d7fa0ac7952eb70d20d3ff493c40034fd364736f6c63430008040033",
  "linkReferences": {},
  "deployedLinkReferences": {}
}