{
  "contractName": "News",
  "abi": [
    {
      "anonymous": false,
      "inputs": [
        {
          "indexed": false,
          "internalType": "uint256",
          "name": "id",
          "type": "uint256"
        }
      ],
      "name": "bookMarkAdded",
      "type": "event"
    },
    {
      "anonymous": false,
      "inputs": [
        {
          "indexed": false,
          "internalType": "uint256",
          "name": "id",
          "type": "uint256"
        },
        {
          "indexed": false,
          "internalType": "string",
          "name": "hashOfImage",
          "type": "string"
        },
        {
          "indexed": false,
          "internalType": "string",
          "name": "hashOfNews",
          "type": "string"
        },
        {
          "indexed": false,
          "internalType": "address payable",
          "name": "author",
          "type": "address"
        }
      ],
      "name": "newsCreated",
      "type": "event"
    },
    {
      "constant": true,
      "inputs": [
        {
          "internalType": "address",
          "name": "",
          "type": "address"
        },
        {
          "internalType": "uint256",
          "name": "",
          "type": "uint256"
        }
      ],
      "name": "myBookMarks",
      "outputs": [
        {
          "internalType": "uint256",
          "name": "",
          "type": "uint256"
        }
      ],
      "payable": false,
      "stateMutability": "view",
      "type": "function"
    },
    {
      "constant": true,
      "inputs": [],
      "name": "name",
      "outputs": [
        {
          "internalType": "string",
          "name": "",
          "type": "string"
        }
      ],
      "payable": false,
      "stateMutability": "view",
      "type": "function"
    },
    {
      "constant": true,
      "inputs": [
        {
          "internalType": "uint256",
          "name": "",
          "type": "uint256"
        }
      ],
      "name": "news",
      "outputs": [
        {
          "internalType": "uint256",
          "name": "id",
          "type": "uint256"
        },
        {
          "internalType": "string",
          "name": "hashOfImage",
          "type": "string"
        },
        {
          "internalType": "string",
          "name": "hashOfNews",
          "type": "string"
        },
        {
          "internalType": "address payable",
          "name": "author",
          "type": "address"
        }
      ],
      "payable": false,
      "stateMutability": "view",
      "type": "function"
    },
    {
      "constant": true,
      "inputs": [],
      "name": "newsCount",
      "outputs": [
        {
          "internalType": "uint256",
          "name": "",
          "type": "uint256"
        }
      ],
      "payable": false,
      "stateMutability": "view",
      "type": "function"
    },
    {
      "constant": false,
      "inputs": [
        {
          "internalType": "string",
          "name": "_newsHash",
          "type": "string"
        },
        {
          "internalType": "string",
          "name": "_imgHash",
          "type": "string"
        }
      ],
      "name": "addNews",
      "outputs": [],
      "payable": false,
      "stateMutability": "nonpayable",
      "type": "function"
    },
    {
      "constant": true,
      "inputs": [],
      "name": "getBookMarks",
      "outputs": [
        {
          "internalType": "uint256[]",
          "name": "",
          "type": "uint256[]"
        }
      ],
      "payable": false,
      "stateMutability": "view",
      "type": "function"
    },
    {
      "constant": false,
      "inputs": [
        {
          "internalType": "uint256",
          "name": "_id",
          "type": "uint256"
        }
      ],
      "name": "addBookMarks",
      "outputs": [],
      "payable": false,
      "stateMutability": "nonpayable",
      "type": "function"
    }
  ],
  "bytecode": "0x60806040526040518060400160405280600d81526020017f4e65777320436f6e7472616374000000000000000000000000000000000000008152506000908051906020019061004f929190610067565b50600060015534801561006157600080fd5b5061010c565b828054600181600116156101000203166002900490600052602060002090601f016020900481019282601f106100a857805160ff19168380011785556100d6565b828001600101855582156100d6579182015b828111156100d55782518255916020019190600101906100ba565b5b5090506100e391906100e7565b5090565b61010991905b808211156101055760008160009055506001016100ed565b5090565b90565b610c588061011b6000396000f3fe608060405234801561001057600080fd5b506004361061007d5760003560e01c80636bd8ee1a1161005b5780636bd8ee1a146102b457806380ec938e146103135780639981d6d314610465578063fdd95061146104835761007d565b806306fdde031461008257806354d12ccf146101055780635afa34db14610167575b600080fd5b61008a6104b1565b6040518080602001828103825283818151815260200191508051906020019080838360005b838110156100ca5780820151818401526020810190506100af565b50505050905090810190601f1680156100f75780820380516001836020036101000a031916815260200191505b509250505060405180910390f35b6101516004803603604081101561011b57600080fd5b81019080803573ffffffffffffffffffffffffffffffffffffffff1690602001909291908035906020019092919050505061054f565b6040518082815260200191505060405180910390f35b6101936004803603602081101561017d57600080fd5b810190808035906020019092919050505061057d565b6040518085815260200180602001806020018473ffffffffffffffffffffffffffffffffffffffff1673ffffffffffffffffffffffffffffffffffffffff168152602001838103835286818151815260200191508051906020019080838360005b8381101561020f5780820151818401526020810190506101f4565b50505050905090810190601f16801561023c5780820380516001836020036101000a031916815260200191505b50838103825285818151815260200191508051906020019080838360005b8381101561027557808201518184015260208101905061025a565b50505050905090810190601f1680156102a25780820380516001836020036101000a031916815260200191505b50965050505050505060405180910390f35b6102bc6106fd565b6040518080602001828103825283818151815260200191508051906020019060200280838360005b838110156102ff5780820151818401526020810190506102e4565b505050509050019250505060405180910390f35b6104636004803603604081101561032957600080fd5b810190808035906020019064010000000081111561034657600080fd5b82018360208201111561035857600080fd5b8035906020019184600183028401116401000000008311171561037a57600080fd5b91908080601f016020809104026020016040519081016040528093929190818152602001838380828437600081840152601f19601f820116905080830192505050505050509192919290803590602001906401000000008111156103dd57600080fd5b8201836020820111156103ef57600080fd5b8035906020019184600183028401116401000000008311171561041157600080fd5b91908080601f016020809104026020016040519081016040528093929190818152602001838380828437600081840152601f19601f820116905080830192505050505050509192919290505050610846565b005b61046d610ad5565b6040518082815260200191505060405180910390f35b6104af6004803603602081101561049957600080fd5b8101908080359060200190929190505050610adb565b005b60008054600181600116156101000203166002900480601f0160208091040260200160405190810160405280929190818152602001828054600181600116156101000203166002900480156105475780601f1061051c57610100808354040283529160200191610547565b820191906000526020600020905b81548152906001019060200180831161052a57829003601f168201915b505050505081565b6003602052816000526040600020818154811061056857fe5b90600052602060002001600091509150505481565b6002602052806000526040600020600091509050806000015490806001018054600181600116156101000203166002900480601f01602080910402602001604051908101604052809291908181526020018280546001816001161561010002031660029004801561062f5780601f106106045761010080835404028352916020019161062f565b820191906000526020600020905b81548152906001019060200180831161061257829003601f168201915b505050505090806002018054600181600116156101000203166002900480601f0160208091040260200160405190810160405280929190818152602001828054600181600116156101000203166002900480156106cd5780601f106106a2576101008083540402835291602001916106cd565b820191906000526020600020905b8154815290600101906020018083116106b057829003601f168201915b5050505050908060030160009054906101000a900473ffffffffffffffffffffffffffffffffffffffff16905084565b606080600360003373ffffffffffffffffffffffffffffffffffffffff1673ffffffffffffffffffffffffffffffffffffffff168152602001908152602001600020805490506040519080825280602002602001820160405280156107715781602001602082028038833980820191505090505b50905060008090505b600360003373ffffffffffffffffffffffffffffffffffffffff1673ffffffffffffffffffffffffffffffffffffffff1681526020019081526020016000208054905081101561083e57600360003373ffffffffffffffffffffffffffffffffffffffff1673ffffffffffffffffffffffffffffffffffffffff168152602001908152602001600020818154811061080e57fe5b906000526020600020015482828151811061082557fe5b602002602001018181525050808060010191505061077a565b508091505090565b600081511161085457600080fd5b600082511161086257600080fd5b600073ffffffffffffffffffffffffffffffffffffffff163373ffffffffffffffffffffffffffffffffffffffff16141561089c57600080fd5b600160008154809291906001019190505550604051806080016040528060015481526020018281526020018381526020013373ffffffffffffffffffffffffffffffffffffffff16815250600260006001548152602001908152602001600020600082015181600001556020820151816001019080519060200190610922929190610b7e565b50604082015181600201908051906020019061093f929190610b7e565b5060608201518160030160006101000a81548173ffffffffffffffffffffffffffffffffffffffff021916908373ffffffffffffffffffffffffffffffffffffffff1602179055509050507fae7be96fe81de9c320abb32310eb15cc15ab9ab541b8a9c98b340eb9dcd995d96001548284336040518085815260200180602001806020018473ffffffffffffffffffffffffffffffffffffffff1673ffffffffffffffffffffffffffffffffffffffff168152602001838103835286818151815260200191508051906020019080838360005b83811015610a2d578082015181840152602081019050610a12565b50505050905090810190601f168015610a5a5780820380516001836020036101000a031916815260200191505b50838103825285818151815260200191508051906020019080838360005b83811015610a93578082015181840152602081019050610a78565b50505050905090810190601f168015610ac05780820380516001836020036101000a031916815260200191505b50965050505050505060405180910390a15050565b60015481565b600360003373ffffffffffffffffffffffffffffffffffffffff1673ffffffffffffffffffffffffffffffffffffffff1681526020019081526020016000208190806001815401808255809150509060018203906000526020600020016000909192909190915055507fe2c7af5fcb39566351658b07704987678ea621c636871ae02afee9c72b77f386816040518082815260200191505060405180910390a150565b828054600181600116156101000203166002900490600052602060002090601f016020900481019282601f10610bbf57805160ff1916838001178555610bed565b82800160010185558215610bed579182015b82811115610bec578251825591602001919060010190610bd1565b5b509050610bfa9190610bfe565b5090565b610c2091905b80821115610c1c576000816000905550600101610c04565b5090565b9056fea265627a7a7231582051861315c3317df14f049941a2f15db8b44917081c697e8c8e42af7369e1805464736f6c63430005100032",
  "source": "pragma solidity ^0.5.0;\r\n\r\ncontract News {\r\n  string public name = \"News Contract\";\r\n\r\n  uint public newsCount = 0;\r\n\r\n  mapping(uint => newsArticle) public news;\r\n  mapping(address => uint[]) public myBookMarks;\r\n\r\n  struct newsArticle {\r\n    uint id;\r\n    string hashOfImage;\r\n    string hashOfNews;\r\n    address payable author;\r\n  }\r\n\r\n  event newsCreated(\r\n    uint id,\r\n    string hashOfImage,\r\n    string hashOfNews,\r\n    address payable author\r\n  );\r\n\r\n  event bookMarkAdded(\r\n    uint id\r\n  );\r\n\r\n\r\n  function addNews(string memory _newsHash, string memory _imgHash) public {\r\n    require(bytes(_imgHash).length > 0);\r\n    require(bytes(_newsHash).length > 0);\r\n    require(msg.sender != address(0x0));\r\n    \r\n    newsCount++;\r\n    news[newsCount] = newsArticle(newsCount, _imgHash, _newsHash, msg.sender);\r\n    emit newsCreated(newsCount, _imgHash, _newsHash, msg.sender);\r\n  }\r\n\r\n  function getBookMarks() public view returns (uint[] memory) {\r\n    uint[] memory _myBookMarksList = new uint[](myBookMarks[msg.sender].length);\r\n    for(uint j = 0; j < myBookMarks[msg.sender].length; j++) {\r\n      _myBookMarksList[j] = myBookMarks[msg.sender][j];\r\n    }\r\n    return _myBookMarksList;\r\n  }\r\n\r\n  function addBookMarks(uint _id) public {\r\n    myBookMarks[msg.sender].push(_id);   \r\n    emit bookMarkAdded(_id);\r\n\r\n  }\r\n}\r\n",
  "sourcePath": "C:\\Blockchain dev\\newsDApp\\src\\contracts\\News.sol",
  "compiler": {
    "name": "solc",
    "version": "0.5.16+commit.9c3226ce.Emscripten.clang"
  },
  "schemaVersion": "3.4.4",
  "updatedAt": "2022-03-16T14:44:34.688Z",
  "networkType": "ethereum",
  "devdoc": {
    "methods": {}
  },
  "userdoc": {
    "methods": {}
  }
}